{
  "_format": "hh-sol-artifact-1",
  "contractName": "HomebaseDAO",
  "sourceName": "contracts/Dao.sol",
  "abi": [
    {
      "inputs": [
        {
          "internalType": "contract IVotes",
          "name": "_token",
          "type": "address"
        },
        {
          "internalType": "contract TimelockController",
          "name": "_timelock",
          "type": "address"
        },
        {
          "internalType": "string",
          "name": "name",
          "type": "string"
        },
        {
          "internalType": "uint48",
          "name": "minsDelay",
          "type": "uint48"
        },
        {
          "internalType": "uint32",
          "name": "minsVoting",
          "type": "uint32"
        },
        {
          "internalType": "uint256",
          "name": "pThreshold",
          "type": "uint256"
        },
        {
          "internalType": "uint8",
          "name": "qvrm",
          "type": "uint8"
        }
      ],
      "stateMutability": "nonpayable",
      "type": "constructor"
    },
    {
      "inputs": [],
      "name": "CheckpointUnorderedInsertion",
      "type": "error"
    },
    {
      "inputs": [],
      "name": "FailedInnerCall",
      "type": "error"
    },
    {
      "inputs": [
        {
          "internalType": "address",
          "name": "voter",
          "type": "address"
        }
      ],
      "name": "GovernorAlreadyCastVote",
      "type": "error"
    },
    {
      "inputs": [
        {
          "internalType": "uint256",
          "name": "proposalId",
          "type": "uint256"
        }
      ],
      "name": "GovernorAlreadyQueuedProposal",
      "type": "error"
    },
    {
      "inputs": [],
      "name": "GovernorDisabledDeposit",
      "type": "error"
    },
    {
      "inputs": [
        {
          "internalType": "address",
          "name": "proposer",
          "type": "address"
        },
        {
          "internalType": "uint256",
          "name": "votes",
          "type": "uint256"
        },
        {
          "internalType": "uint256",
          "name": "threshold",
          "type": "uint256"
        }
      ],
      "name": "GovernorInsufficientProposerVotes",
      "type": "error"
    },
    {
      "inputs": [
        {
          "internalType": "uint256",
          "name": "targets",
          "type": "uint256"
        },
        {
          "internalType": "uint256",
          "name": "calldatas",
          "type": "uint256"
        },
        {
          "internalType": "uint256",
          "name": "values",
          "type": "uint256"
        }
      ],
      "name": "GovernorInvalidProposalLength",
      "type": "error"
    },
    {
      "inputs": [
        {
          "internalType": "uint256",
          "name": "quorumNumerator",
          "type": "uint256"
        },
        {
          "internalType": "uint256",
          "name": "quorumDenominator",
          "type": "uint256"
        }
      ],
      "name": "GovernorInvalidQuorumFraction",
      "type": "error"
    },
    {
      "inputs": [
        {
          "internalType": "address",
          "name": "voter",
          "type": "address"
        }
      ],
      "name": "GovernorInvalidSignature",
      "type": "error"
    },
    {
      "inputs": [],
      "name": "GovernorInvalidVoteType",
      "type": "error"
    },
    {
      "inputs": [
        {
          "internalType": "uint256",
          "name": "votingPeriod",
          "type": "uint256"
        }
      ],
      "name": "GovernorInvalidVotingPeriod",
      "type": "error"
    },
    {
      "inputs": [
        {
          "internalType": "uint256",
          "name": "proposalId",
          "type": "uint256"
        }
      ],
      "name": "GovernorNonexistentProposal",
      "type": "error"
    },
    {
      "inputs": [
        {
          "internalType": "uint256",
          "name": "proposalId",
          "type": "uint256"
        }
      ],
      "name": "GovernorNotQueuedProposal",
      "type": "error"
    },
    {
      "inputs": [
        {
          "internalType": "address",
          "name": "account",
          "type": "address"
        }
      ],
      "name": "GovernorOnlyExecutor",
      "type": "error"
    },
    {
      "inputs": [
        {
          "internalType": "address",
          "name": "account",
          "type": "address"
        }
      ],
      "name": "GovernorOnlyProposer",
      "type": "error"
    },
    {
      "inputs": [],
      "name": "GovernorQueueNotImplemented",
      "type": "error"
    },
    {
      "inputs": [
        {
          "internalType": "address",
          "name": "proposer",
          "type": "address"
        }
      ],
      "name": "GovernorRestrictedProposer",
      "type": "error"
    },
    {
      "inputs": [
        {
          "internalType": "uint256",
          "name": "proposalId",
          "type": "uint256"
        },
        {
          "internalType": "enum IGovernor.ProposalState",
          "name": "current",
          "type": "uint8"
        },
        {
          "internalType": "bytes32",
          "name": "expectedStates",
          "type": "bytes32"
        }
      ],
      "name": "GovernorUnexpectedProposalState",
      "type": "error"
    },
    {
      "inputs": [
        {
          "internalType": "address",
          "name": "account",
          "type": "address"
        },
        {
          "internalType": "uint256",
          "name": "currentNonce",
          "type": "uint256"
        }
      ],
      "name": "InvalidAccountNonce",
      "type": "error"
    },
    {
      "inputs": [],
      "name": "InvalidShortString",
      "type": "error"
    },
    {
      "inputs": [],
      "name": "QueueEmpty",
      "type": "error"
    },
    {
      "inputs": [],
      "name": "QueueFull",
      "type": "error"
    },
    {
      "inputs": [
        {
          "internalType": "uint8",
          "name": "bits",
          "type": "uint8"
        },
        {
          "internalType": "uint256",
          "name": "value",
          "type": "uint256"
        }
      ],
      "name": "SafeCastOverflowedUintDowncast",
      "type": "error"
    },
    {
      "inputs": [
        {
          "internalType": "string",
          "name": "str",
          "type": "string"
        }
      ],
      "name": "StringTooLong",
      "type": "error"
    },
    {
      "anonymous": false,
      "inputs": [],
      "name": "EIP712DomainChanged",
      "type": "event"
    },
    {
      "anonymous": false,
      "inputs": [
        {
          "indexed": false,
          "internalType": "uint256",
          "name": "proposalId",
          "type": "uint256"
        }
      ],
      "name": "ProposalCanceled",
      "type": "event"
    },
    {
      "anonymous": false,
      "inputs": [
        {
          "indexed": false,
          "internalType": "uint256",
          "name": "proposalId",
          "type": "uint256"
        },
        {
          "indexed": false,
          "internalType": "address",
          "name": "proposer",
          "type": "address"
        },
        {
          "indexed": false,
          "internalType": "address[]",
          "name": "targets",
          "type": "address[]"
        },
        {
          "indexed": false,
          "internalType": "uint256[]",
          "name": "values",
          "type": "uint256[]"
        },
        {
          "indexed": false,
          "internalType": "string[]",
          "name": "signatures",
          "type": "string[]"
        },
        {
          "indexed": false,
          "internalType": "bytes[]",
          "name": "calldatas",
          "type": "bytes[]"
        },
        {
          "indexed": false,
          "internalType": "uint256",
          "name": "voteStart",
          "type": "uint256"
        },
        {
          "indexed": false,
          "internalType": "uint256",
          "name": "voteEnd",
          "type": "uint256"
        },
        {
          "indexed": false,
          "internalType": "string",
          "name": "description",
          "type": "string"
        }
      ],
      "name": "ProposalCreated",
      "type": "event"
    },
    {
      "anonymous": false,
      "inputs": [
        {
          "indexed": false,
          "internalType": "uint256",
          "name": "proposalId",
          "type": "uint256"
        }
      ],
      "name": "ProposalExecuted",
      "type": "event"
    },
    {
      "anonymous": false,
      "inputs": [
        {
          "indexed": false,
          "internalType": "uint256",
          "name": "proposalId",
          "type": "uint256"
        },
        {
          "indexed": false,
          "internalType": "uint256",
          "name": "etaSeconds",
          "type": "uint256"
        }
      ],
      "name": "ProposalQueued",
      "type": "event"
    },
    {
      "anonymous": false,
      "inputs": [
        {
          "indexed": false,
          "internalType": "uint256",
          "name": "oldProposalThreshold",
          "type": "uint256"
        },
        {
          "indexed": false,
          "internalType": "uint256",
          "name": "newProposalThreshold",
          "type": "uint256"
        }
      ],
      "name": "ProposalThresholdSet",
      "type": "event"
    },
    {
      "anonymous": false,
      "inputs": [
        {
          "indexed": false,
          "internalType": "uint256",
          "name": "oldQuorumNumerator",
          "type": "uint256"
        },
        {
          "indexed": false,
          "internalType": "uint256",
          "name": "newQuorumNumerator",
          "type": "uint256"
        }
      ],
      "name": "QuorumNumeratorUpdated",
      "type": "event"
    },
    {
      "anonymous": false,
      "inputs": [
        {
          "indexed": false,
          "internalType": "address",
          "name": "oldTimelock",
          "type": "address"
        },
        {
          "indexed": false,
          "internalType": "address",
          "name": "newTimelock",
          "type": "address"
        }
      ],
      "name": "TimelockChange",
      "type": "event"
    },
    {
      "anonymous": false,
      "inputs": [
        {
          "indexed": true,
          "internalType": "address",
          "name": "voter",
          "type": "address"
        },
        {
          "indexed": false,
          "internalType": "uint256",
          "name": "proposalId",
          "type": "uint256"
        },
        {
          "indexed": false,
          "internalType": "uint8",
          "name": "support",
          "type": "uint8"
        },
        {
          "indexed": false,
          "internalType": "uint256",
          "name": "weight",
          "type": "uint256"
        },
        {
          "indexed": false,
          "internalType": "string",
          "name": "reason",
          "type": "string"
        }
      ],
      "name": "VoteCast",
      "type": "event"
    },
    {
      "anonymous": false,
      "inputs": [
        {
          "indexed": true,
          "internalType": "address",
          "name": "voter",
          "type": "address"
        },
        {
          "indexed": false,
          "internalType": "uint256",
          "name": "proposalId",
          "type": "uint256"
        },
        {
          "indexed": false,
          "internalType": "uint8",
          "name": "support",
          "type": "uint8"
        },
        {
          "indexed": false,
          "internalType": "uint256",
          "name": "weight",
          "type": "uint256"
        },
        {
          "indexed": false,
          "internalType": "string",
          "name": "reason",
          "type": "string"
        },
        {
          "indexed": false,
          "internalType": "bytes",
          "name": "params",
          "type": "bytes"
        }
      ],
      "name": "VoteCastWithParams",
      "type": "event"
    },
    {
      "anonymous": false,
      "inputs": [
        {
          "indexed": false,
          "internalType": "uint256",
          "name": "oldVotingDelay",
          "type": "uint256"
        },
        {
          "indexed": false,
          "internalType": "uint256",
          "name": "newVotingDelay",
          "type": "uint256"
        }
      ],
      "name": "VotingDelaySet",
      "type": "event"
    },
    {
      "anonymous": false,
      "inputs": [
        {
          "indexed": false,
          "internalType": "uint256",
          "name": "oldVotingPeriod",
          "type": "uint256"
        },
        {
          "indexed": false,
          "internalType": "uint256",
          "name": "newVotingPeriod",
          "type": "uint256"
        }
      ],
      "name": "VotingPeriodSet",
      "type": "event"
    },
    {
      "inputs": [],
      "name": "BALLOT_TYPEHASH",
      "outputs": [
        {
          "internalType": "bytes32",
          "name": "",
          "type": "bytes32"
        }
      ],
      "stateMutability": "view",
      "type": "function"
    },
    {
      "inputs": [],
      "name": "CLOCK_MODE",
      "outputs": [
        {
          "internalType": "string",
          "name": "",
          "type": "string"
        }
      ],
      "stateMutability": "view",
      "type": "function"
    },
    {
      "inputs": [],
      "name": "COUNTING_MODE",
      "outputs": [
        {
          "internalType": "string",
          "name": "",
          "type": "string"
        }
      ],
      "stateMutability": "pure",
      "type": "function"
    },
    {
      "inputs": [],
      "name": "EXTENDED_BALLOT_TYPEHASH",
      "outputs": [
        {
          "internalType": "bytes32",
          "name": "",
          "type": "bytes32"
        }
      ],
      "stateMutability": "view",
      "type": "function"
    },
    {
      "inputs": [
        {
          "internalType": "address[]",
          "name": "targets",
          "type": "address[]"
        },
        {
          "internalType": "uint256[]",
          "name": "values",
          "type": "uint256[]"
        },
        {
          "internalType": "bytes[]",
          "name": "calldatas",
          "type": "bytes[]"
        },
        {
          "internalType": "bytes32",
          "name": "descriptionHash",
          "type": "bytes32"
        }
      ],
      "name": "cancel",
      "outputs": [
        {
          "internalType": "uint256",
          "name": "",
          "type": "uint256"
        }
      ],
      "stateMutability": "nonpayable",
      "type": "function"
    },
    {
      "inputs": [
        {
          "internalType": "uint256",
          "name": "proposalId",
          "type": "uint256"
        },
        {
          "internalType": "uint8",
          "name": "support",
          "type": "uint8"
        }
      ],
      "name": "castVote",
      "outputs": [
        {
          "internalType": "uint256",
          "name": "",
          "type": "uint256"
        }
      ],
      "stateMutability": "nonpayable",
      "type": "function"
    },
    {
      "inputs": [
        {
          "internalType": "uint256",
          "name": "proposalId",
          "type": "uint256"
        },
        {
          "internalType": "uint8",
          "name": "support",
          "type": "uint8"
        },
        {
          "internalType": "address",
          "name": "voter",
          "type": "address"
        },
        {
          "internalType": "bytes",
          "name": "signature",
          "type": "bytes"
        }
      ],
      "name": "castVoteBySig",
      "outputs": [
        {
          "internalType": "uint256",
          "name": "",
          "type": "uint256"
        }
      ],
      "stateMutability": "nonpayable",
      "type": "function"
    },
    {
      "inputs": [
        {
          "internalType": "uint256",
          "name": "proposalId",
          "type": "uint256"
        },
        {
          "internalType": "uint8",
          "name": "support",
          "type": "uint8"
        },
        {
          "internalType": "string",
          "name": "reason",
          "type": "string"
        }
      ],
      "name": "castVoteWithReason",
      "outputs": [
        {
          "internalType": "uint256",
          "name": "",
          "type": "uint256"
        }
      ],
      "stateMutability": "nonpayable",
      "type": "function"
    },
    {
      "inputs": [
        {
          "internalType": "uint256",
          "name": "proposalId",
          "type": "uint256"
        },
        {
          "internalType": "uint8",
          "name": "support",
          "type": "uint8"
        },
        {
          "internalType": "string",
          "name": "reason",
          "type": "string"
        },
        {
          "internalType": "bytes",
          "name": "params",
          "type": "bytes"
        }
      ],
      "name": "castVoteWithReasonAndParams",
      "outputs": [
        {
          "internalType": "uint256",
          "name": "",
          "type": "uint256"
        }
      ],
      "stateMutability": "nonpayable",
      "type": "function"
    },
    {
      "inputs": [
        {
          "internalType": "uint256",
          "name": "proposalId",
          "type": "uint256"
        },
        {
          "internalType": "uint8",
          "name": "support",
          "type": "uint8"
        },
        {
          "internalType": "address",
          "name": "voter",
          "type": "address"
        },
        {
          "internalType": "string",
          "name": "reason",
          "type": "string"
        },
        {
          "internalType": "bytes",
          "name": "params",
          "type": "bytes"
        },
        {
          "internalType": "bytes",
          "name": "signature",
          "type": "bytes"
        }
      ],
      "name": "castVoteWithReasonAndParamsBySig",
      "outputs": [
        {
          "internalType": "uint256",
          "name": "",
          "type": "uint256"
        }
      ],
      "stateMutability": "nonpayable",
      "type": "function"
    },
    {
      "inputs": [],
      "name": "clock",
      "outputs": [
        {
          "internalType": "uint48",
          "name": "",
          "type": "uint48"
        }
      ],
      "stateMutability": "view",
      "type": "function"
    },
    {
      "inputs": [],
      "name": "eip712Domain",
      "outputs": [
        {
          "internalType": "bytes1",
          "name": "fields",
          "type": "bytes1"
        },
        {
          "internalType": "string",
          "name": "name",
          "type": "string"
        },
        {
          "internalType": "string",
          "name": "version",
          "type": "string"
        },
        {
          "internalType": "uint256",
          "name": "chainId",
          "type": "uint256"
        },
        {
          "internalType": "address",
          "name": "verifyingContract",
          "type": "address"
        },
        {
          "internalType": "bytes32",
          "name": "salt",
          "type": "bytes32"
        },
        {
          "internalType": "uint256[]",
          "name": "extensions",
          "type": "uint256[]"
        }
      ],
      "stateMutability": "view",
      "type": "function"
    },
    {
      "inputs": [
        {
          "internalType": "address[]",
          "name": "targets",
          "type": "address[]"
        },
        {
          "internalType": "uint256[]",
          "name": "values",
          "type": "uint256[]"
        },
        {
          "internalType": "bytes[]",
          "name": "calldatas",
          "type": "bytes[]"
        },
        {
          "internalType": "bytes32",
          "name": "descriptionHash",
          "type": "bytes32"
        }
      ],
      "name": "execute",
      "outputs": [
        {
          "internalType": "uint256",
          "name": "",
          "type": "uint256"
        }
      ],
      "stateMutability": "payable",
      "type": "function"
    },
    {
      "inputs": [
        {
          "internalType": "address",
          "name": "account",
          "type": "address"
        },
        {
          "internalType": "uint256",
          "name": "timepoint",
          "type": "uint256"
        }
      ],
      "name": "getVotes",
      "outputs": [
        {
          "internalType": "uint256",
          "name": "",
          "type": "uint256"
        }
      ],
      "stateMutability": "view",
      "type": "function"
    },
    {
      "inputs": [
        {
          "internalType": "address",
          "name": "account",
          "type": "address"
        },
        {
          "internalType": "uint256",
          "name": "timepoint",
          "type": "uint256"
        },
        {
          "internalType": "bytes",
          "name": "params",
          "type": "bytes"
        }
      ],
      "name": "getVotesWithParams",
      "outputs": [
        {
          "internalType": "uint256",
          "name": "",
          "type": "uint256"
        }
      ],
      "stateMutability": "view",
      "type": "function"
    },
    {
      "inputs": [
        {
          "internalType": "uint256",
          "name": "proposalId",
          "type": "uint256"
        },
        {
          "internalType": "address",
          "name": "account",
          "type": "address"
        }
      ],
      "name": "hasVoted",
      "outputs": [
        {
          "internalType": "bool",
          "name": "",
          "type": "bool"
        }
      ],
      "stateMutability": "view",
      "type": "function"
    },
    {
      "inputs": [
        {
          "internalType": "address[]",
          "name": "targets",
          "type": "address[]"
        },
        {
          "internalType": "uint256[]",
          "name": "values",
          "type": "uint256[]"
        },
        {
          "internalType": "bytes[]",
          "name": "calldatas",
          "type": "bytes[]"
        },
        {
          "internalType": "bytes32",
          "name": "descriptionHash",
          "type": "bytes32"
        }
      ],
      "name": "hashProposal",
      "outputs": [
        {
          "internalType": "uint256",
          "name": "",
          "type": "uint256"
        }
      ],
      "stateMutability": "pure",
      "type": "function"
    },
    {
      "inputs": [],
      "name": "name",
      "outputs": [
        {
          "internalType": "string",
          "name": "",
          "type": "string"
        }
      ],
      "stateMutability": "view",
      "type": "function"
    },
    {
      "inputs": [
        {
          "internalType": "address",
          "name": "owner",
          "type": "address"
        }
      ],
      "name": "nonces",
      "outputs": [
        {
          "internalType": "uint256",
          "name": "",
          "type": "uint256"
        }
      ],
      "stateMutability": "view",
      "type": "function"
    },
    {
      "inputs": [
        {
          "internalType": "address",
          "name": "",
          "type": "address"
        },
        {
          "internalType": "address",
          "name": "",
          "type": "address"
        },
        {
          "internalType": "uint256[]",
          "name": "",
          "type": "uint256[]"
        },
        {
          "internalType": "uint256[]",
          "name": "",
          "type": "uint256[]"
        },
        {
          "internalType": "bytes",
          "name": "",
          "type": "bytes"
        }
      ],
      "name": "onERC1155BatchReceived",
      "outputs": [
        {
          "internalType": "bytes4",
          "name": "",
          "type": "bytes4"
        }
      ],
      "stateMutability": "nonpayable",
      "type": "function"
    },
    {
      "inputs": [
        {
          "internalType": "address",
          "name": "",
          "type": "address"
        },
        {
          "internalType": "address",
          "name": "",
          "type": "address"
        },
        {
          "internalType": "uint256",
          "name": "",
          "type": "uint256"
        },
        {
          "internalType": "uint256",
          "name": "",
          "type": "uint256"
        },
        {
          "internalType": "bytes",
          "name": "",
          "type": "bytes"
        }
      ],
      "name": "onERC1155Received",
      "outputs": [
        {
          "internalType": "bytes4",
          "name": "",
          "type": "bytes4"
        }
      ],
      "stateMutability": "nonpayable",
      "type": "function"
    },
    {
      "inputs": [
        {
          "internalType": "address",
          "name": "",
          "type": "address"
        },
        {
          "internalType": "address",
          "name": "",
          "type": "address"
        },
        {
          "internalType": "uint256",
          "name": "",
          "type": "uint256"
        },
        {
          "internalType": "bytes",
          "name": "",
          "type": "bytes"
        }
      ],
      "name": "onERC721Received",
      "outputs": [
        {
          "internalType": "bytes4",
          "name": "",
          "type": "bytes4"
        }
      ],
      "stateMutability": "nonpayable",
      "type": "function"
    },
    {
      "inputs": [
        {
          "internalType": "uint256",
          "name": "proposalId",
          "type": "uint256"
        }
      ],
      "name": "proposalDeadline",
      "outputs": [
        {
          "internalType": "uint256",
          "name": "",
          "type": "uint256"
        }
      ],
      "stateMutability": "view",
      "type": "function"
    },
    {
      "inputs": [
        {
          "internalType": "uint256",
          "name": "proposalId",
          "type": "uint256"
        }
      ],
      "name": "proposalEta",
      "outputs": [
        {
          "internalType": "uint256",
          "name": "",
          "type": "uint256"
        }
      ],
      "stateMutability": "view",
      "type": "function"
    },
    {
      "inputs": [
        {
          "internalType": "uint256",
          "name": "proposalId",
          "type": "uint256"
        }
      ],
      "name": "proposalNeedsQueuing",
      "outputs": [
        {
          "internalType": "bool",
          "name": "",
          "type": "bool"
        }
      ],
      "stateMutability": "view",
      "type": "function"
    },
    {
      "inputs": [
        {
          "internalType": "uint256",
          "name": "proposalId",
          "type": "uint256"
        }
      ],
      "name": "proposalProposer",
      "outputs": [
        {
          "internalType": "address",
          "name": "",
          "type": "address"
        }
      ],
      "stateMutability": "view",
      "type": "function"
    },
    {
      "inputs": [
        {
          "internalType": "uint256",
          "name": "proposalId",
          "type": "uint256"
        }
      ],
      "name": "proposalSnapshot",
      "outputs": [
        {
          "internalType": "uint256",
          "name": "",
          "type": "uint256"
        }
      ],
      "stateMutability": "view",
      "type": "function"
    },
    {
      "inputs": [],
      "name": "proposalThreshold",
      "outputs": [
        {
          "internalType": "uint256",
          "name": "",
          "type": "uint256"
        }
      ],
      "stateMutability": "view",
      "type": "function"
    },
    {
      "inputs": [
        {
          "internalType": "uint256",
          "name": "proposalId",
          "type": "uint256"
        }
      ],
      "name": "proposalVotes",
      "outputs": [
        {
          "internalType": "uint256",
          "name": "againstVotes",
          "type": "uint256"
        },
        {
          "internalType": "uint256",
          "name": "forVotes",
          "type": "uint256"
        },
        {
          "internalType": "uint256",
          "name": "abstainVotes",
          "type": "uint256"
        }
      ],
      "stateMutability": "view",
      "type": "function"
    },
    {
      "inputs": [
        {
          "internalType": "address[]",
          "name": "targets",
          "type": "address[]"
        },
        {
          "internalType": "uint256[]",
          "name": "values",
          "type": "uint256[]"
        },
        {
          "internalType": "bytes[]",
          "name": "calldatas",
          "type": "bytes[]"
        },
        {
          "internalType": "string",
          "name": "description",
          "type": "string"
        }
      ],
      "name": "propose",
      "outputs": [
        {
          "internalType": "uint256",
          "name": "",
          "type": "uint256"
        }
      ],
      "stateMutability": "nonpayable",
      "type": "function"
    },
    {
      "inputs": [
        {
          "internalType": "address[]",
          "name": "targets",
          "type": "address[]"
        },
        {
          "internalType": "uint256[]",
          "name": "values",
          "type": "uint256[]"
        },
        {
          "internalType": "bytes[]",
          "name": "calldatas",
          "type": "bytes[]"
        },
        {
          "internalType": "bytes32",
          "name": "descriptionHash",
          "type": "bytes32"
        }
      ],
      "name": "queue",
      "outputs": [
        {
          "internalType": "uint256",
          "name": "",
          "type": "uint256"
        }
      ],
      "stateMutability": "nonpayable",
      "type": "function"
    },
    {
      "inputs": [
        {
          "internalType": "uint256",
          "name": "blockNumber",
          "type": "uint256"
        }
      ],
      "name": "quorum",
      "outputs": [
        {
          "internalType": "uint256",
          "name": "",
          "type": "uint256"
        }
      ],
      "stateMutability": "view",
      "type": "function"
    },
    {
      "inputs": [],
      "name": "quorumDenominator",
      "outputs": [
        {
          "internalType": "uint256",
          "name": "",
          "type": "uint256"
        }
      ],
      "stateMutability": "view",
      "type": "function"
    },
    {
      "inputs": [
        {
          "internalType": "uint256",
          "name": "timepoint",
          "type": "uint256"
        }
      ],
      "name": "quorumNumerator",
      "outputs": [
        {
          "internalType": "uint256",
          "name": "",
          "type": "uint256"
        }
      ],
      "stateMutability": "view",
      "type": "function"
    },
    {
      "inputs": [],
      "name": "quorumNumerator",
      "outputs": [
        {
          "internalType": "uint256",
          "name": "",
          "type": "uint256"
        }
      ],
      "stateMutability": "view",
      "type": "function"
    },
    {
      "inputs": [
        {
          "internalType": "address",
          "name": "target",
          "type": "address"
        },
        {
          "internalType": "uint256",
          "name": "value",
          "type": "uint256"
        },
        {
          "internalType": "bytes",
          "name": "data",
          "type": "bytes"
        }
      ],
      "name": "relay",
      "outputs": [],
      "stateMutability": "payable",
      "type": "function"
    },
    {
      "inputs": [
        {
          "internalType": "uint256",
          "name": "newProposalThreshold",
          "type": "uint256"
        }
      ],
      "name": "setProposalThreshold",
      "outputs": [],
      "stateMutability": "nonpayable",
      "type": "function"
    },
    {
      "inputs": [
        {
          "internalType": "uint48",
          "name": "newVotingDelay",
          "type": "uint48"
        }
      ],
      "name": "setVotingDelay",
      "outputs": [],
      "stateMutability": "nonpayable",
      "type": "function"
    },
    {
      "inputs": [
        {
          "internalType": "uint32",
          "name": "newVotingPeriod",
          "type": "uint32"
        }
      ],
      "name": "setVotingPeriod",
      "outputs": [],
      "stateMutability": "nonpayable",
      "type": "function"
    },
    {
      "inputs": [
        {
          "internalType": "uint256",
          "name": "proposalId",
          "type": "uint256"
        }
      ],
      "name": "state",
      "outputs": [
        {
          "internalType": "enum IGovernor.ProposalState",
          "name": "",
          "type": "uint8"
        }
      ],
      "stateMutability": "view",
      "type": "function"
    },
    {
      "inputs": [
        {
          "internalType": "bytes4",
          "name": "interfaceId",
          "type": "bytes4"
        }
      ],
      "name": "supportsInterface",
      "outputs": [
        {
          "internalType": "bool",
          "name": "",
          "type": "bool"
        }
      ],
      "stateMutability": "view",
      "type": "function"
    },
    {
      "inputs": [],
      "name": "timelock",
      "outputs": [
        {
          "internalType": "address",
          "name": "",
          "type": "address"
        }
      ],
      "stateMutability": "view",
      "type": "function"
    },
    {
      "inputs": [],
      "name": "token",
      "outputs": [
        {
          "internalType": "contract IERC5805",
          "name": "",
          "type": "address"
        }
      ],
      "stateMutability": "view",
      "type": "function"
    },
    {
      "inputs": [
        {
          "internalType": "uint256",
          "name": "newQuorumNumerator",
          "type": "uint256"
        }
      ],
      "name": "updateQuorumNumerator",
      "outputs": [],
      "stateMutability": "nonpayable",
      "type": "function"
    },
    {
      "inputs": [
        {
          "internalType": "contract TimelockController",
          "name": "newTimelock",
          "type": "address"
        }
      ],
      "name": "updateTimelock",
      "outputs": [],
      "stateMutability": "nonpayable",
      "type": "function"
    },
    {
      "inputs": [],
      "name": "version",
      "outputs": [
        {
          "internalType": "string",
          "name": "",
          "type": "string"
        }
      ],
      "stateMutability": "view",
      "type": "function"
    },
    {
      "inputs": [],
      "name": "votingDelay",
      "outputs": [
        {
          "internalType": "uint256",
          "name": "",
          "type": "uint256"
        }
      ],
      "stateMutability": "view",
      "type": "function"
    },
    {
      "inputs": [],
      "name": "votingPeriod",
      "outputs": [
        {
          "internalType": "uint256",
          "name": "",
          "type": "uint256"
        }
      ],
      "stateMutability": "view",
      "type": "function"
    },
    {
      "stateMutability": "payable",
      "type": "receive"
    }
  ],
  "bytecode": "0x6101806040523480156200001257600080fd5b5060405162004efe38038062004efe833981016040819052620000359162000812565b8560ff8216886200004887603c6200094f565b6200005587603c6200097c565b868a80620000776040805180820190915260018152603160f81b602082015290565b6200008482600062000193565b610120526200009581600162000193565b61014052815160208084019190912060e052815190820120610100524660a0526200012360e05161010051604080517f8b73c3c69bb8fe3d512ecc4cf759cc79239f7b179b0ffacaa9a75d522b39400f60208201529081019290925260608201524660808201523060a082015260009060c00160405160208183030381529060405280519060200120905090565b60805250503060c05260036200013a828262000a30565b5062000148905083620001cc565b620001538262000232565b6200015e81620002d9565b5050506001600160a01b03166101605262000179816200031a565b506200018581620003ba565b505050505050505062000b8a565b6000602083511015620001b357620001ab8362000423565b9050620001c6565b81620001c0848262000a30565b5060ff90505b92915050565b6008546040805165ffffffffffff928316815291831660208301527fc565b045403dc03c2eea82b81a0465edad9e2e7fc4d97e11421c209da93d7a93910160405180910390a16008805465ffffffffffff191665ffffffffffff92909216919091179055565b8063ffffffff16600003620002625760405163f1cfbf0560e01b8152600060048201526024015b60405180910390fd5b6008546040805163ffffffff66010000000000009093048316815291831660208301527f7e3f7f0708a84de9203036abaa450dccc85ad5ff52f78c170f3edb55cf5e8828910160405180910390a16008805463ffffffff90921666010000000000000263ffffffff60301b19909216919091179055565b60075460408051918252602082018390527fccb45da8d5717e6c4544694297c4ba5cf151d455c9bb0ed4fc7a38411bc05461910160405180910390a1600755565b606480821115620003495760405163243e544560e01b8152600481018390526024810182905260440162000259565b60006200035562000466565b90506200037a6200036562000482565b620003708562000504565b600a91906200053e565b505060408051828152602081018590527f0553476bf02ef2726e8ce5ced78d63e26e602e4a2257b1f559418e24b4633997910160405180910390a1505050565b600b54604080516001600160a01b03928316815291831660208301527f08f74ea46ef7894f65eabfb5e6e695de773a000b47c529ab559178069b226401910160405180910390a1600b80546001600160a01b0319166001600160a01b0392909216919091179055565b600080829050601f8151111562000451578260405163305a27a960e01b815260040162000259919062000afc565b80516200045e8262000b31565b179392505050565b600062000474600a6200055b565b6001600160d01b0316905090565b60006200048f6101605190565b6001600160a01b03166391ddadf46040518163ffffffff1660e01b8152600401602060405180830381865afa925050508015620004eb575060408051601f3d908101601f19168201909252620004e89181019062000b56565b60015b620004ff57620004fa620005ab565b905090565b919050565b60006001600160d01b038211156200053a576040516306dfcc6560e41b815260d060048201526024810183905260440162000259565b5090565b6000806200054e858585620005b8565b915091505b935093915050565b80546000908015620005a15762000587836200057960018462000b74565b600091825260209091200190565b54660100000000000090046001600160d01b0316620005a4565b60005b9392505050565b6000620004fa436200074a565b825460009081908015620006eb576000620005da876200057960018562000b74565b60408051808201909152905465ffffffffffff80821680845266010000000000009092046001600160d01b0316602084015291925090871610156200063257604051632520601d60e01b815260040160405180910390fd5b805165ffffffffffff80881691160362000686578462000659886200057960018662000b74565b80546001600160d01b039290921666010000000000000265ffffffffffff909216919091179055620006da565b6040805180820190915265ffffffffffff80881682526001600160d01b0380881660208085019182528b54600181018d5560008d815291909120945191519092166601000000000000029216919091179101555b602001519250839150620005539050565b50506040805180820190915265ffffffffffff80851682526001600160d01b0380851660208085019182528854600181018a5560008a815291822095519251909316660100000000000002919093161792019190915590508162000553565b600065ffffffffffff8211156200053a576040516306dfcc6560e41b8152603060048201526024810183905260440162000259565b6001600160a01b03811681146200079557600080fd5b50565b634e487b7160e01b600052604160045260246000fd5b60005b83811015620007cb578181015183820152602001620007b1565b50506000910152565b805165ffffffffffff81168114620004ff57600080fd5b805163ffffffff81168114620004ff57600080fd5b805160ff81168114620004ff57600080fd5b600080600080600080600060e0888a0312156200082e57600080fd5b87516200083b816200077f565b60208901519097506200084e816200077f565b60408901519096506001600160401b03808211156200086c57600080fd5b818a0191508a601f8301126200088157600080fd5b81518181111562000896576200089662000798565b604051601f8201601f19908116603f01168101908382118183101715620008c157620008c162000798565b816040528281528d6020848701011115620008db57600080fd5b620008ee836020830160208801620007ae565b80995050505050506200090460608901620007d4565b93506200091460808901620007eb565b925060a088015191506200092b60c0890162000800565b905092959891949750929550565b634e487b7160e01b600052601160045260246000fd5b65ffffffffffff81811683821602808216919082811462000974576200097462000939565b505092915050565b63ffffffff81811683821602808216919082811462000974576200097462000939565b600181811c90821680620009b457607f821691505b602082108103620009d557634e487b7160e01b600052602260045260246000fd5b50919050565b601f82111562000a2b576000816000526020600020601f850160051c8101602086101562000a065750805b601f850160051c820191505b8181101562000a275782815560010162000a12565b5050505b505050565b81516001600160401b0381111562000a4c5762000a4c62000798565b62000a648162000a5d84546200099f565b84620009db565b602080601f83116001811462000a9c576000841562000a835750858301515b600019600386901b1c1916600185901b17855562000a27565b600085815260208120601f198616915b8281101562000acd5788860151825594840194600190910190840162000aac565b508582101562000aec5787850151600019600388901b60f8161c191681555b5050505050600190811b01905550565b602081526000825180602084015262000b1d816040850160208701620007ae565b601f01601f19169190910160400192915050565b80516020808301519190811015620009d55760001960209190910360031b1b16919050565b60006020828403121562000b6957600080fd5b620005a482620007d4565b81810381811115620001c657620001c662000939565b60805160a05160c05160e051610100516101205161014051610160516142f262000c0c600039600081816109de01528181610e48015281816113a301528181611ff4015261224e01526000611fbf01526000611f92015260006128820152600061285a015260006127b5015260006127df0152600061280901526142f26000f3fe6080604052600436106102975760003560e01c80637ecebe001161015a578063c01f9e37116100c1578063e540d01d1161007a578063e540d01d1461092f578063eb9019d41461094f578063ece40cc11461096f578063f23a6e611461098f578063f8ce560a146109af578063fc0c546a146109cf57600080fd5b8063c01f9e3714610844578063c28bc2fa14610864578063c59057e414610877578063d33219b414610897578063dd4e2ba5146108b5578063deaaa7cc146108fb57600080fd5b8063a7713a7011610113578063a7713a7014610782578063a890c91014610797578063a9a95294146107b7578063ab58fb8e146107d7578063b58131b01461080f578063bc197c811461082457600080fd5b80637ecebe00146106a457806384b0196e146106da5780638ff262e31461070257806391ddadf41461072257806397c3d3341461074e5780639a802a6d1461076257600080fd5b806343859632116101fe5780635b8d0e0d116101b75780635b8d0e0d146105e45780635f398a141461060457806360c4247f1461062457806379051887146106445780637b3c71d3146106645780637d5e81e21461068457600080fd5b806343859632146104c6578063452115d6146105105780634bf5d7e914610530578063544ffc9c1461054557806354fd4d501461059a57806356781388146105c457600080fd5b8063160cbed711610250578063160cbed7146103fd5780632656227d1461041d5780632d63f693146104305780632fe3e261146104505780633932abb1146104845780633e4f49e61461049957600080fd5b806301ffc9a7146102d357806302a251a31461030857806306f3f9e61461033457806306fdde0314610354578063143489d014610376578063150b7a02146103c457600080fd5b366102ce57306102a5610a02565b6001600160a01b0316146102cc57604051637485328f60e11b815260040160405180910390fd5b005b600080fd5b3480156102df57600080fd5b506102f36102ee36600461323a565b610a1b565b60405190151581526020015b60405180910390f35b34801561031457600080fd5b50600854600160301b900463ffffffff165b6040519081526020016102ff565b34801561034057600080fd5b506102cc61034f366004613264565b610a6d565b34801561036057600080fd5b50610369610a81565b6040516102ff91906132cd565b34801561038257600080fd5b506103ac610391366004613264565b6000908152600460205260409020546001600160a01b031690565b6040516001600160a01b0390911681526020016102ff565b3480156103d057600080fd5b506103e46103df3660046133c0565b610b13565b6040516001600160e01b031990911681526020016102ff565b34801561040957600080fd5b5061032661041836600461359f565b610b56565b61032661042b36600461359f565b610c25565b34801561043c57600080fd5b5061032661044b366004613264565b610d91565b34801561045c57600080fd5b506103267f3e83946653575f9a39005e1545185629e92736b7528ab20ca3816f315424a81181565b34801561049057600080fd5b50610326610db2565b3480156104a557600080fd5b506104b96104b4366004613264565b610dc5565b6040516102ff9190613666565b3480156104d257600080fd5b506102f36104e1366004613674565b60008281526009602090815260408083206001600160a01b038516845260030190915290205460ff1692915050565b34801561051c57600080fd5b5061032661052b36600461359f565b610dd0565b34801561053c57600080fd5b50610369610e44565b34801561055157600080fd5b5061057f610560366004613264565b6000908152600960205260409020805460018201546002909201549092565b604080519384526020840192909252908201526060016102ff565b3480156105a657600080fd5b506040805180820190915260018152603160f81b6020820152610369565b3480156105d057600080fd5b506103266105df3660046136b5565b610f06565b3480156105f057600080fd5b506103266105ff366004613729565b610f2f565b34801561061057600080fd5b5061032661061f3660046137e3565b61108e565b34801561063057600080fd5b5061032661063f366004613264565b6110e3565b34801561065057600080fd5b506102cc61065f36600461387a565b611171565b34801561067057600080fd5b5061032661067f366004613897565b611182565b34801561069057600080fd5b5061032661069f3660046138f0565b6111ca565b3480156106b057600080fd5b506103266106bf3660046139a4565b6001600160a01b031660009081526002602052604090205490565b3480156106e657600080fd5b506106ef611287565b6040516102ff97969594939291906139fd565b34801561070e57600080fd5b5061032661071d366004613a6d565b6112cd565b34801561072e57600080fd5b5061073761139f565b60405165ffffffffffff90911681526020016102ff565b34801561075a57600080fd5b506064610326565b34801561076e57600080fd5b5061032661077d366004613abe565b611427565b34801561078e57600080fd5b50610326611434565b3480156107a357600080fd5b506102cc6107b23660046139a4565b61144e565b3480156107c357600080fd5b506102f36107d2366004613264565b61145f565b3480156107e357600080fd5b506103266107f2366004613264565b60009081526004602052604090206001015465ffffffffffff1690565b34801561081b57600080fd5b50610326611468565b34801561083057600080fd5b506103e461083f366004613b16565b611473565b34801561085057600080fd5b5061032661085f366004613264565b6114b7565b6102cc610872366004613ba9565b6114fa565b34801561088357600080fd5b5061032661089236600461359f565b61157a565b3480156108a357600080fd5b50600b546001600160a01b03166103ac565b3480156108c157600080fd5b506040805180820190915260208082527f737570706f72743d627261766f2671756f72756d3d666f722c6162737461696e90820152610369565b34801561090757600080fd5b506103267ff2aad550cf55f045cb27e9c559f9889fdfb6e6cdaa032301d6ea397784ae51d781565b34801561093b57600080fd5b506102cc61094a366004613bec565b6115b4565b34801561095b57600080fd5b5061032661096a366004613c12565b6115c5565b34801561097b57600080fd5b506102cc61098a366004613264565b6115ed565b34801561099b57600080fd5b506103e46109aa366004613c3e565b6115fe565b3480156109bb57600080fd5b506103266109ca366004613264565b611642565b3480156109db57600080fd5b507f00000000000000000000000000000000000000000000000000000000000000006103ac565b6000610a16600b546001600160a01b031690565b905090565b60006001600160e01b031982166332a2ad4360e11b1480610a4c57506001600160e01b03198216630271189760e51b145b80610a6757506301ffc9a760e01b6001600160e01b03198316145b92915050565b610a7561164d565b610a7e816116c7565b50565b606060038054610a9090613ca6565b80601f0160208091040260200160405190810160405280929190818152602001828054610abc90613ca6565b8015610b095780601f10610ade57610100808354040283529160200191610b09565b820191906000526020600020905b815481529060010190602001808311610aec57829003601f168201915b5050505050905090565b600030610b1e610a02565b6001600160a01b031614610b4557604051637485328f60e11b815260040160405180910390fd5b50630a85bd0160e11b949350505050565b600080610b658686868661157a565b9050610b7a81610b75600461175d565b611780565b506000610b8a82888888886117bf565b905065ffffffffffff811615610c0257600082815260046020908152604091829020600101805465ffffffffffff191665ffffffffffff85169081179091558251858152918201527f9a2e42fd6722813d69113e7d0079d3d940171428df7373df9c7f7617cfda2892910160405180910390a1610c1b565b604051634844252360e11b815260040160405180910390fd5b5095945050505050565b600080610c348686868661157a565b9050610c5481610c44600561175d565b610c4e600461175d565b17611780565b506000818152600460205260409020805460ff60f01b1916600160f01b17905530610c7d610a02565b6001600160a01b031614610d075760005b8651811015610d0557306001600160a01b0316878281518110610cb357610cb3613ce0565b60200260200101516001600160a01b031603610cfd57610cfd858281518110610cde57610cde613ce0565b60200260200101518051906020012060056117ce90919063ffffffff16565b600101610c8e565b505b610d14818787878761183f565b30610d1d610a02565b6001600160a01b031614158015610d4957506005546001600160801b03808216600160801b9092041614155b15610d545760006005555b6040518181527f712ae1383f79ac853f8d882153778e0260ef8f03b504e2866e0593e04d2b291f906020015b60405180910390a195945050505050565b600090815260046020526040902054600160a01b900465ffffffffffff1690565b6000610a1660085465ffffffffffff1690565b6000610a6782611853565b600080610ddf8686868661157a565b9050610def81610b75600061175d565b506000818152600460205260409020546001600160a01b03163314610e2e5760405163233d98e360e01b81523360048201526024015b60405180910390fd5b610e3a86868686611992565b9695505050505050565b60607f00000000000000000000000000000000000000000000000000000000000000006001600160a01b0316634bf5d7e96040518163ffffffff1660e01b8152600401600060405180830381865afa925050508015610ec557506040513d6000823e601f3d908101601f19168201604052610ec29190810190613cf6565b60015b610f01575060408051808201909152601d81527f6d6f64653d626c6f636b6e756d6265722666726f6d3d64656661756c74000000602082015290565b919050565b600080339050610f27848285604051806020016040528060008152506119a9565b949350505050565b6000806110128761100c7f3e83946653575f9a39005e1545185629e92736b7528ab20ca3816f315424a8118c8c8c610f848e6001600160a01b0316600090815260026020526040902080546001810190915590565b8d8d604051610f94929190613d63565b60405180910390208c80519060200120604051602001610ff19796959493929190968752602087019590955260ff9390931660408601526001600160a01b03919091166060850152608084015260a083015260c082015260e00190565b604051602081830303815290604052805190602001206119cc565b856119f9565b90508061103d576040516394ab6c0760e01b81526001600160a01b0388166004820152602401610e25565b61108189888a89898080601f0160208091040260200160405190810160405280939291908181526020018383808284376000920191909152508b9250611a51915050565b9998505050505050505050565b6000803390506110d887828888888080601f0160208091040260200160405190810160405280939291908181526020018383808284376000920191909152508a9250611a51915050565b979650505050505050565b600a805460009182906110f7600184613d89565b8154811061110757611107613ce0565b6000918252602090912001805490915065ffffffffffff811690600160301b90046001600160d01b031685821161114a576001600160d01b031695945050505050565b61115e61115687611b2e565b600a90611b65565b6001600160d01b03169695505050505050565b61117961164d565b610a7e81611c1a565b600080339050610e3a86828787878080601f0160208091040260200160405190810160405280939291908181526020018383808284376000920191909152506119a992505050565b6000336111d78184611c80565b6111ff5760405163d9b3955760e01b81526001600160a01b0382166004820152602401610e25565b600061122682600161120f61139f565b6112199190613d9c565b65ffffffffffff166115c5565b90506000611232611468565b90508082101561126e57604051636121770b60e11b81526001600160a01b03841660048201526024810183905260448101829052606401610e25565b61127b8888888887611d6b565b98975050505050505050565b60006060806000806000606061129b611f8b565b6112a3611fb8565b60408051600080825260208201909252600f60f81b9b939a50919850469750309650945092509050565b6000806113598461100c7ff2aad550cf55f045cb27e9c559f9889fdfb6e6cdaa032301d6ea397784ae51d78989896113228b6001600160a01b0316600090815260026020526040902080546001810190915590565b60408051602081019690965285019390935260ff90911660608401526001600160a01b0316608083015260a082015260c001610ff1565b905080611384576040516394ab6c0760e01b81526001600160a01b0385166004820152602401610e25565b610e3a868587604051806020016040528060008152506119a9565b60007f00000000000000000000000000000000000000000000000000000000000000006001600160a01b03166391ddadf46040518163ffffffff1660e01b8152600401602060405180830381865afa92505050801561141b575060408051601f3d908101601f1916820190925261141891810190613dc2565b60015b610f0157610a16611fe5565b6000610f27848484611ff0565b6000611440600a612086565b6001600160d01b0316905090565b61145661164d565b610a7e816120bf565b60006001610a67565b6000610a1660075490565b60003061147e610a02565b6001600160a01b0316146114a557604051637485328f60e11b815260040160405180910390fd5b5063bc197c8160e01b95945050505050565b6000818152600460205260408120546114ec90600160d01b810463ffffffff1690600160a01b900465ffffffffffff16613ddf565b65ffffffffffff1692915050565b61150261164d565b600080856001600160a01b0316858585604051611520929190613d63565b60006040518083038185875af1925050503d806000811461155d576040519150601f19603f3d011682016040523d82523d6000602084013e611562565b606091505b50915091506115718282612128565b50505050505050565b6000848484846040516020016115939493929190613e92565b60408051601f19818403018152919052805160209091012095945050505050565b6115bc61164d565b610a7e81612144565b60006115e683836115e160408051602081019091526000815290565b611ff0565b9392505050565b6115f561164d565b610a7e816121e2565b600030611609610a02565b6001600160a01b03161461163057604051637485328f60e11b815260040160405180910390fd5b5063f23a6e6160e01b95945050505050565b6000610a6782612223565b33611656610a02565b6001600160a01b03161461167f576040516347096e4760e01b8152336004820152602401610e25565b30611688610a02565b6001600160a01b0316146116c557600080366040516116a8929190613d63565b604051809103902090505b806116be60056122cd565b036116b357505b565b6064808211156116f45760405163243e544560e01b81526004810183905260248101829052604401610e25565b60006116fe611434565b905061171d61170b61139f565b6117148561234b565b600a919061237f565b505060408051828152602081018590527f0553476bf02ef2726e8ce5ced78d63e26e602e4a2257b1f559418e24b4633997910160405180910390a1505050565b60008160078111156117715761177161362e565b600160ff919091161b92915050565b60008061178c84610dc5565b905060008361179a8361175d565b16036115e6578381846040516331b75e4d60e01b8152600401610e2593929190613edd565b6000610e3a868686868661239a565b81546001600160801b03600160801b82048116918116600183019091160361180957604051638acb5f2760e01b815260040160405180910390fd5b6001600160801b03808216600090815260018086016020526040909120939093558354919092018216600160801b029116179055565b61184c8585858585612539565b5050505050565b60008061185f836125cf565b905060058160078111156118755761187561362e565b146118805792915050565b6000838152600c60205260409081902054600b549151632c258a9f60e11b81526004810182905290916001600160a01b03169063584b153e90602401602060405180830381865afa1580156118d9573d6000803e3d6000fd5b505050506040513d601f19601f820116820180604052508101906118fd9190613eff565b1561190c575060059392505050565b600b54604051632ab0f52960e01b8152600481018390526001600160a01b0390911690632ab0f52990602401602060405180830381865afa158015611955573d6000803e3d6000fd5b505050506040513d601f19601f820116820180604052508101906119799190613eff565b15611988575060079392505050565b5060029392505050565b60006119a085858585612709565b95945050505050565b60006119a0858585856119c760408051602081019091526000815290565b611a51565b6000610a676119d96127a8565b8360405161190160f01b8152600281019290925260228201526042902090565b6000806000611a0885856128d3565b5090925090506000816003811115611a2257611a2261362e565b148015611a405750856001600160a01b0316826001600160a01b0316145b80610e3a5750610e3a868686612920565b6000611a6186610b75600161175d565b506000611a7786611a7189610d91565b85611ff0565b9050611a8687878784876129fb565b8251600003611adb57856001600160a01b03167fb8e138887d0aa13bab447e82de9d5c1777041ecd21ca36ba824ff1e6c07ddda488878488604051611ace9493929190613f21565b60405180910390a2610e3a565b856001600160a01b03167fe2babfbac5889a709b63bb7f598b324e08bc5a4fb9ec647fb3cbc9ec07eb87128887848888604051611b1c959493929190613f49565b60405180910390a29695505050505050565b600065ffffffffffff821115611b61576040516306dfcc6560e41b81526030600482015260248101839052604401610e25565b5090565b815460009081816005811115611bc4576000611b8084612afc565b611b8a9085613d89565b60008881526020902090915081015465ffffffffffff9081169087161015611bb457809150611bc2565b611bbf816001613f83565b92505b505b6000611bd287878585612be4565b90508015611c0d57611bf787611be9600184613d89565b600091825260209091200190565b54600160301b90046001600160d01b03166110d8565b6000979650505050505050565b6008546040805165ffffffffffff928316815291831660208301527fc565b045403dc03c2eea82b81a0465edad9e2e7fc4d97e11421c209da93d7a93910160405180910390a16008805465ffffffffffff191665ffffffffffff92909216919091179055565b80516000906034811015611c98576001915050610a67565b82810160131901516001600160a01b031981166b046e0e4dee0dee6cae47a60f60a31b14611ccb57600192505050610a67565b600080611cd9602885613d89565b90505b83811015611d4a57600080611d10888481518110611cfc57611cfc613ce0565b01602001516001600160f81b031916612c46565b9150915081611d285760019650505050505050610a67565b8060ff166004856001600160a01b0316901b1793505050806001019050611cdc565b50856001600160a01b0316816001600160a01b031614935050505092915050565b6000611d80868686868051906020012061157a565b905084518651141580611d9557508351865114155b80611d9f57508551155b15611dd457855184518651604051630447b05d60e41b8152600481019390935260248301919091526044820152606401610e25565b600081815260046020526040902054600160a01b900465ffffffffffff1615611e1f5780611e0182610dc5565b6040516331b75e4d60e01b8152610e25929190600090600401613edd565b6000611e29610db2565b611e3161139f565b65ffffffffffff16611e439190613f83565b90506000611e5e60085463ffffffff600160301b9091041690565b600084815260046020526040902080546001600160a01b0319166001600160a01b038716178155909150611e9183611b2e565b815465ffffffffffff91909116600160a01b0265ffffffffffff60a01b19909116178155611ebe82612cd8565b815463ffffffff91909116600160d01b0263ffffffff60d01b1990911617815588517f7d84a6263ae0d98d3329bd7b46bb4e8d6f98cd35a7adb45c274c8b7fd5ebd5e090859087908c908c906001600160401b03811115611f2157611f216132f5565b604051908082528060200260200182016040528015611f5457816020015b6060815260200190600190039081611f3f5790505b508c89611f618a82613f83565b8e604051611f7799989796959493929190613f96565b60405180910390a150505095945050505050565b6060610a167f00000000000000000000000000000000000000000000000000000000000000006000612d09565b6060610a167f00000000000000000000000000000000000000000000000000000000000000006001612d09565b6000610a1643611b2e565b60007f0000000000000000000000000000000000000000000000000000000000000000604051630748d63560e31b81526001600160a01b038681166004830152602482018690529190911690633a46b1a890604401602060405180830381865afa158015612062573d6000803e3d6000fd5b505050506040513d601f19601f82011682018060405250810190610f27919061406d565b805460009080156120b6576120a083611be9600184613d89565b54600160301b90046001600160d01b03166115e6565b60009392505050565b600b54604080516001600160a01b03928316815291831660208301527f08f74ea46ef7894f65eabfb5e6e695de773a000b47c529ab559178069b226401910160405180910390a1600b80546001600160a01b0319166001600160a01b0392909216919091179055565b60608261213d5761213882612db4565b610a67565b5080610a67565b8063ffffffff1660000361216e5760405163f1cfbf0560e01b815260006004820152602401610e25565b6008546040805163ffffffff600160301b9093048316815291831660208301527f7e3f7f0708a84de9203036abaa450dccc85ad5ff52f78c170f3edb55cf5e8828910160405180910390a16008805463ffffffff909216600160301b0269ffffffff00000000000019909216919091179055565b60075460408051918252602082018390527fccb45da8d5717e6c4544694297c4ba5cf151d455c9bb0ed4fc7a38411bc05461910160405180910390a1600755565b60006064612230836110e3565b604051632394e7a360e21b8152600481018590526001600160a01b037f00000000000000000000000000000000000000000000000000000000000000001690638e539e8c90602401602060405180830381865afa158015612295573d6000803e3d6000fd5b505050506040513d601f19601f820116820180604052508101906122b9919061406d565b6122c39190614086565b610a6791906140b3565b80546000906001600160801b0380821691600160801b9004168103612305576040516375e52f4f60e01b815260040160405180910390fd5b6001600160801b038181166000908152600185810160205260408220805492905585546fffffffffffffffffffffffffffffffff19169301909116919091179092555090565b60006001600160d01b03821115611b61576040516306dfcc6560e41b815260d0600482015260248101839052604401610e25565b60008061238d858585612ddd565b915091505b935093915050565b600080600b60009054906101000a90046001600160a01b03166001600160a01b031663f27a0c926040518163ffffffff1660e01b8152600401602060405180830381865afa1580156123f0573d6000803e3d6000fd5b505050506040513d601f19601f82011682018060405250810190612414919061406d565b905060003060601b6bffffffffffffffffffffffff19168418600b5460405163b1c5f42760e01b81529192506001600160a01b03169063b1c5f42790612467908a908a908a9060009088906004016140d5565b602060405180830381865afa158015612484573d6000803e3d6000fd5b505050506040513d601f19601f820116820180604052508101906124a8919061406d565b6000898152600c602052604080822092909255600b5491516308f2a0bb60e41b81526001600160a01b0390921691638f2a0bb0916124f3918b918b918b919088908a90600401614123565b600060405180830381600087803b15801561250d57600080fd5b505af1158015612521573d6000803e3d6000fd5b5050505061127b82426125349190613f83565b611b2e565b600b546001600160a01b031663e38335e53486868660003060601b6bffffffffffffffffffffffff191688186040518763ffffffff1660e01b81526004016125859594939291906140d5565b6000604051808303818588803b15801561259e57600080fd5b505af11580156125b2573d6000803e3d6000fd5b50505060009687525050600c602052505060408320929092555050565b6000818152600460205260408120805460ff600160f01b8204811691600160f81b900416811561260457506007949350505050565b801561261557506002949350505050565b600061262086610d91565b90508060000361264657604051636ad0607560e01b815260048101879052602401610e25565b600061265061139f565b65ffffffffffff16905080821061266e575060009695505050505050565b6000612679886114b7565b905081811061269057506001979650505050505050565b61269988612f57565b15806126b957506000888152600960205260409020805460019091015411155b156126cc57506003979650505050505050565b60008881526004602052604090206001015465ffffffffffff166000036126fb57506004979650505050505050565b506005979650505050505050565b60008061271886868686612f8e565b6000818152600c60205260409020549091508015610c1b57600b5460405163c4d252f560e01b8152600481018390526001600160a01b039091169063c4d252f590602401600060405180830381600087803b15801561277657600080fd5b505af115801561278a573d6000803e3d6000fd5b5050506000838152600c602052604081205550509050949350505050565b6000306001600160a01b037f00000000000000000000000000000000000000000000000000000000000000001614801561280157507f000000000000000000000000000000000000000000000000000000000000000046145b1561282b57507f000000000000000000000000000000000000000000000000000000000000000090565b610a16604080517f8b73c3c69bb8fe3d512ecc4cf759cc79239f7b179b0ffacaa9a75d522b39400f60208201527f0000000000000000000000000000000000000000000000000000000000000000918101919091527f000000000000000000000000000000000000000000000000000000000000000060608201524660808201523060a082015260009060c00160405160208183030381529060405280519060200120905090565b6000806000835160410361290d5760208401516040850151606086015160001a6128ff8882858561303f565b955095509550505050612919565b50508151600091506002905b9250925092565b6000806000856001600160a01b0316858560405160240161294292919061417b565b60408051601f198184030181529181526020820180516001600160e01b0316630b135d3f60e11b179052516129779190614194565b600060405180830381855afa9150503d80600081146129b2576040519150601f19603f3d011682016040523d82523d6000602084013e6129b7565b606091505b50915091508180156129cb57506020815110155b8015610e3a57508051630b135d3f60e11b906129f0908301602090810190840161406d565b149695505050505050565b60008581526009602090815260408083206001600160a01b0388168452600381019092529091205460ff1615612a4f576040516371c6af4960e01b81526001600160a01b0386166004820152602401610e25565b6001600160a01b03851660009081526003820160205260409020805460ff1916600117905560ff8416612a9b5782816000016000828254612a909190613f83565b90915550612af49050565b60001960ff851601612abb5782816001016000828254612a909190613f83565b60011960ff851601612adb5782816002016000828254612a909190613f83565b6040516303599be160e11b815260040160405180910390fd5b505050505050565b600081600003612b0e57506000919050565b60006001612b1b8461310e565b901c6001901b90506001818481612b3457612b3461409d565b048201901c90506001818481612b4c57612b4c61409d565b048201901c90506001818481612b6457612b6461409d565b048201901c90506001818481612b7c57612b7c61409d565b048201901c90506001818481612b9457612b9461409d565b048201901c90506001818481612bac57612bac61409d565b048201901c90506001818481612bc457612bc461409d565b048201901c90506115e681828581612bde57612bde61409d565b046131a2565b60005b81831015612c3e576000612bfb84846131b8565b60008781526020902090915065ffffffffffff86169082015465ffffffffffff161115612c2a57809250612c38565b612c35816001613f83565b93505b50612be7565b509392505050565b60008060f883901c602f81118015612c615750603a8160ff16105b15612c7657600194602f199091019350915050565b8060ff166040108015612c8c575060478160ff16105b15612ca1576001946036199091019350915050565b8060ff166060108015612cb7575060678160ff16105b15612ccc576001946056199091019350915050565b50600093849350915050565b600063ffffffff821115611b61576040516306dfcc6560e41b81526020600482015260248101839052604401610e25565b606060ff8314612d2357612d1c836131d3565b9050610a67565b818054612d2f90613ca6565b80601f0160208091040260200160405190810160405280929190818152602001828054612d5b90613ca6565b8015612da85780601f10612d7d57610100808354040283529160200191612da8565b820191906000526020600020905b815481529060010190602001808311612d8b57829003601f168201915b50505050509050610a67565b805115612dc45780518082602001fd5b604051630a12f52160e11b815260040160405180910390fd5b825460009081908015612efc576000612dfb87611be9600185613d89565b60408051808201909152905465ffffffffffff808216808452600160301b9092046001600160d01b031660208401529192509087161015612e4f57604051632520601d60e01b815260040160405180910390fd5b805165ffffffffffff808816911603612e9b5784612e7288611be9600186613d89565b80546001600160d01b0392909216600160301b0265ffffffffffff909216919091179055612eec565b6040805180820190915265ffffffffffff80881682526001600160d01b0380881660208085019182528b54600181018d5560008d81529190912094519151909216600160301b029216919091179101555b6020015192508391506123929050565b50506040805180820190915265ffffffffffff80851682526001600160d01b0380851660208085019182528854600181018a5560008a815291822095519251909316600160301b029190931617920191909155905081612392565b600081815260096020526040812060028101546001820154612f799190613f83565b612f856109ca85610d91565b11159392505050565b600080612f9d8686868661157a565b9050612feb81612fad600761175d565b612fb7600661175d565b612fc1600261175d565b6001612fce6007826141b0565b612fd99060026142ad565b612fe39190613d89565b181818611780565b506000818152600460205260409081902080546001600160f81b0316600160f81b179055517f789cf55be980739dad1d0699b93b58e806b51c9d96619bfa8fe0a28abaa7b30c90610d809083815260200190565b600080807f7fffffffffffffffffffffffffffffff5d576e7357a4501ddfe92f46681b20a084111561307a5750600091506003905082613104565b604080516000808252602082018084528a905260ff891692820192909252606081018790526080810186905260019060a0016020604051602081039080840390855afa1580156130ce573d6000803e3d6000fd5b5050604051601f1901519150506001600160a01b0381166130fa57506000925060019150829050613104565b9250600091508190505b9450945094915050565b600080608083901c1561312357608092831c92015b604083901c1561313557604092831c92015b602083901c1561314757602092831c92015b601083901c1561315957601092831c92015b600883901c1561316b57600892831c92015b600483901c1561317d57600492831c92015b600283901c1561318f57600292831c92015b600183901c15610a675760010192915050565b60008183106131b157816115e6565b5090919050565b60006131c760028484186140b3565b6115e690848416613f83565b606060006131e083613212565b604080516020808252818301909252919250600091906020820181803683375050509182525060208101929092525090565b600060ff8216601f811115610a6757604051632cd44ac360e21b815260040160405180910390fd5b60006020828403121561324c57600080fd5b81356001600160e01b0319811681146115e657600080fd5b60006020828403121561327657600080fd5b5035919050565b60005b83811015613298578181015183820152602001613280565b50506000910152565b600081518084526132b981602086016020860161327d565b601f01601f19169290920160200192915050565b6020815260006115e660208301846132a1565b6001600160a01b0381168114610a7e57600080fd5b634e487b7160e01b600052604160045260246000fd5b604051601f8201601f191681016001600160401b0381118282101715613333576133336132f5565b604052919050565b60006001600160401b03821115613354576133546132f5565b50601f01601f191660200190565b60006133756133708461333b565b61330b565b905082815283838301111561338957600080fd5b828260208301376000602084830101529392505050565b600082601f8301126133b157600080fd5b6115e683833560208501613362565b600080600080608085870312156133d657600080fd5b84356133e1816132e0565b935060208501356133f1816132e0565b92506040850135915060608501356001600160401b0381111561341357600080fd5b61341f878288016133a0565b91505092959194509250565b60006001600160401b03821115613444576134446132f5565b5060051b60200190565b600082601f83011261345f57600080fd5b8135602061346f6133708361342b565b8083825260208201915060208460051b87010193508684111561349157600080fd5b602086015b848110156134b65780356134a9816132e0565b8352918301918301613496565b509695505050505050565b600082601f8301126134d257600080fd5b813560206134e26133708361342b565b8083825260208201915060208460051b87010193508684111561350457600080fd5b602086015b848110156134b65780358352918301918301613509565b600082601f83011261353157600080fd5b813560206135416133708361342b565b82815260059290921b8401810191818101908684111561356057600080fd5b8286015b848110156134b65780356001600160401b038111156135835760008081fd5b6135918986838b01016133a0565b845250918301918301613564565b600080600080608085870312156135b557600080fd5b84356001600160401b03808211156135cc57600080fd5b6135d88883890161344e565b955060208701359150808211156135ee57600080fd5b6135fa888389016134c1565b9450604087013591508082111561361057600080fd5b5061361d87828801613520565b949793965093946060013593505050565b634e487b7160e01b600052602160045260246000fd5b6008811061366257634e487b7160e01b600052602160045260246000fd5b9052565b60208101610a678284613644565b6000806040838503121561368757600080fd5b823591506020830135613699816132e0565b809150509250929050565b803560ff81168114610f0157600080fd5b600080604083850312156136c857600080fd5b823591506136d8602084016136a4565b90509250929050565b60008083601f8401126136f357600080fd5b5081356001600160401b0381111561370a57600080fd5b60208301915083602082850101111561372257600080fd5b9250929050565b600080600080600080600060c0888a03121561374457600080fd5b87359650613754602089016136a4565b95506040880135613764816132e0565b945060608801356001600160401b038082111561378057600080fd5b61378c8b838c016136e1565b909650945060808a01359150808211156137a557600080fd5b6137b18b838c016133a0565b935060a08a01359150808211156137c757600080fd5b506137d48a828b016133a0565b91505092959891949750929550565b6000806000806000608086880312156137fb57600080fd5b8535945061380b602087016136a4565b935060408601356001600160401b038082111561382757600080fd5b61383389838a016136e1565b9095509350606088013591508082111561384c57600080fd5b50613859888289016133a0565b9150509295509295909350565b65ffffffffffff81168114610a7e57600080fd5b60006020828403121561388c57600080fd5b81356115e681613866565b600080600080606085870312156138ad57600080fd5b843593506138bd602086016136a4565b925060408501356001600160401b038111156138d857600080fd5b6138e4878288016136e1565b95989497509550505050565b6000806000806080858703121561390657600080fd5b84356001600160401b038082111561391d57600080fd5b6139298883890161344e565b9550602087013591508082111561393f57600080fd5b61394b888389016134c1565b9450604087013591508082111561396157600080fd5b61396d88838901613520565b9350606087013591508082111561398357600080fd5b508501601f8101871361399557600080fd5b61341f87823560208401613362565b6000602082840312156139b657600080fd5b81356115e6816132e0565b60008151808452602080850194506020840160005b838110156139f2578151875295820195908201906001016139d6565b509495945050505050565b60ff60f81b8816815260e060208201526000613a1c60e08301896132a1565b8281036040840152613a2e81896132a1565b606084018890526001600160a01b038716608085015260a0840186905283810360c08501529050613a5f81856139c1565b9a9950505050505050505050565b60008060008060808587031215613a8357600080fd5b84359350613a93602086016136a4565b92506040850135613aa3816132e0565b915060608501356001600160401b0381111561341357600080fd5b600080600060608486031215613ad357600080fd5b8335613ade816132e0565b92506020840135915060408401356001600160401b03811115613b0057600080fd5b613b0c868287016133a0565b9150509250925092565b600080600080600060a08688031215613b2e57600080fd5b8535613b39816132e0565b94506020860135613b49816132e0565b935060408601356001600160401b0380821115613b6557600080fd5b613b7189838a016134c1565b94506060880135915080821115613b8757600080fd5b613b9389838a016134c1565b9350608088013591508082111561384c57600080fd5b60008060008060608587031215613bbf57600080fd5b8435613bca816132e0565b93506020850135925060408501356001600160401b038111156138d857600080fd5b600060208284031215613bfe57600080fd5b813563ffffffff811681146115e657600080fd5b60008060408385031215613c2557600080fd5b8235613c30816132e0565b946020939093013593505050565b600080600080600060a08688031215613c5657600080fd5b8535613c61816132e0565b94506020860135613c71816132e0565b9350604086013592506060860135915060808601356001600160401b03811115613c9a57600080fd5b613859888289016133a0565b600181811c90821680613cba57607f821691505b602082108103613cda57634e487b7160e01b600052602260045260246000fd5b50919050565b634e487b7160e01b600052603260045260246000fd5b600060208284031215613d0857600080fd5b81516001600160401b03811115613d1e57600080fd5b8201601f81018413613d2f57600080fd5b8051613d3d6133708261333b565b818152856020838501011115613d5257600080fd5b6119a082602083016020860161327d565b8183823760009101908152919050565b634e487b7160e01b600052601160045260246000fd5b81810381811115610a6757610a67613d73565b65ffffffffffff828116828216039080821115613dbb57613dbb613d73565b5092915050565b600060208284031215613dd457600080fd5b81516115e681613866565b65ffffffffffff818116838216019080821115613dbb57613dbb613d73565b60008151808452602080850194506020840160005b838110156139f25781516001600160a01b031687529582019590820190600101613e13565b60008282518085526020808601955060208260051b8401016020860160005b84811015613e8557601f19868403018952613e738383516132a1565b98840198925090830190600101613e57565b5090979650505050505050565b608081526000613ea56080830187613dfe565b8281036020840152613eb781876139c1565b90508281036040840152613ecb8186613e38565b91505082606083015295945050505050565b83815260608101613ef16020830185613644565b826040830152949350505050565b600060208284031215613f1157600080fd5b815180151581146115e657600080fd5b84815260ff84166020820152826040820152608060608201526000610e3a60808301846132a1565b85815260ff8516602082015283604082015260a060608201526000613f7160a08301856132a1565b828103608084015261127b81856132a1565b80820180821115610a6757610a67613d73565b60006101208b8352602060018060a01b038c1681850152816040850152613fbf8285018c613dfe565b91508382036060850152613fd3828b6139c1565b915083820360808501528189518084528284019150828160051b850101838c0160005b8381101561402457601f198784030185526140128383516132a1565b94860194925090850190600101613ff6565b505086810360a0880152614038818c613e38565b9450505050508560c08401528460e084015282810361010084015261405d81856132a1565b9c9b505050505050505050505050565b60006020828403121561407f57600080fd5b5051919050565b8082028115828204841417610a6757610a67613d73565b634e487b7160e01b600052601260045260246000fd5b6000826140d057634e487b7160e01b600052601260045260246000fd5b500490565b60a0815260006140e860a0830188613dfe565b82810360208401526140fa81886139c1565b9050828103604084015261410e8187613e38565b60608401959095525050608001529392505050565b60c08152600061413660c0830189613dfe565b828103602084015261414881896139c1565b9050828103604084015261415c8188613e38565b60608401969096525050608081019290925260a0909101529392505050565b828152604060208201526000610f2760408301846132a1565b600082516141a681846020870161327d565b9190910192915050565b60ff8181168382160190811115610a6757610a67613d73565b600181815b808511156142045781600019048211156141ea576141ea613d73565b808516156141f757918102915b93841c93908002906141ce565b509250929050565b60008261421b57506001610a67565b8161422857506000610a67565b816001811461423e576002811461424857614264565b6001915050610a67565b60ff84111561425957614259613d73565b50506001821b610a67565b5060208310610133831016604e8410600b8410161715614287575081810a610a67565b61429183836141c9565b80600019048211156142a5576142a5613d73565b029392505050565b60006115e660ff84168361420c56fea26469706673582212207e5225747b7cf04e0aa9458d081e82f64dc7a4a4bbcdbfddb6c229e2586bbbd864736f6c63430008180033",
  "linkReferences": {},
  "deployedLinkReferences": {}
}