{
    "_format": "hh-sol-artifact-1",
    "contractName": "WrapperContract",
    "sourceName": "contracts/Factories.sol",
    "abi": [
        {
            "inputs": [
                {
                    "internalType": "address",
                    "name": "_tokenFactory",
                    "type": "address"
                },
                {
                    "internalType": "address",
                    "name": "_timelockFactory",
                    "type": "address"
                },
                {
                    "internalType": "address",
                    "name": "_daoFactory",
                    "type": "address"
                }
            ],
            "stateMutability": "nonpayable",
            "type": "constructor"
        },
        {
            "anonymous": false,
            "inputs": [
                {
                    "indexed": true,
                    "internalType": "address",
                    "name": "dao",
                    "type": "address"
                },
                {
                    "indexed": false,
                    "internalType": "address",
                    "name": "token",
                    "type": "address"
                },
                {
                    "indexed": false,
                    "internalType": "address[]",
                    "name": "initialMembers",
                    "type": "address[]"
                },
                {
                    "indexed": false,
                    "internalType": "uint256[]",
                    "name": "initialAmounts",
                    "type": "uint256[]"
                },
                {
                    "indexed": false,
                    "internalType": "string",
                    "name": "name",
                    "type": "string"
                },
                {
                    "indexed": false,
                    "internalType": "string",
                    "name": "symbol",
                    "type": "string"
                },
                {
                    "indexed": false,
                    "internalType": "string",
                    "name": "description",
                    "type": "string"
                },
                {
                    "indexed": false,
                    "internalType": "uint256",
                    "name": "executionDelay",
                    "type": "uint256"
                },
                {
                    "indexed": false,
                    "internalType": "address",
                    "name": "registry",
                    "type": "address"
                },
                {
                    "indexed": false,
                    "internalType": "string[]",
                    "name": "keys",
                    "type": "string[]"
                },
                {
                    "indexed": false,
                    "internalType": "string[]",
                    "name": "values",
                    "type": "string[]"
                }
            ],
            "name": "NewDaoCreated",
            "type": "event"
        },
        {
            "inputs": [
                {
                    "components": [
                        {
                            "internalType": "string",
                            "name": "name",
                            "type": "string"
                        },
                        {
                            "internalType": "string",
                            "name": "symbol",
                            "type": "string"
                        },
                        {
                            "internalType": "string",
                            "name": "description",
                            "type": "string"
                        },
                        {
                            "internalType": "uint8",
                            "name": "decimals",
                            "type": "uint8"
                        },
                        {
                            "internalType": "uint256",
                            "name": "executionDelay",
                            "type": "uint256"
                        },
                        {
                            "internalType": "address[]",
                            "name": "initialMembers",
                            "type": "address[]"
                        },
                        {
                            "internalType": "uint256[]",
                            "name": "initialAmounts",
                            "type": "uint256[]"
                        },
                        {
                            "internalType": "string[]",
                            "name": "keys",
                            "type": "string[]"
                        },
                        {
                            "internalType": "string[]",
                            "name": "values",
                            "type": "string[]"
                        }
                    ],
                    "internalType": "struct WrapperContract.DaoParams",
                    "name": "params",
                    "type": "tuple"
                }
            ],
            "name": "deployDAOwithToken",
            "outputs": [],
            "stateMutability": "payable",
            "type": "function"
        },
        {
            "inputs": [
                {
                    "internalType": "uint256",
                    "name": "",
                    "type": "uint256"
                }
            ],
            "name": "deployedDAOs",
            "outputs": [
                {
                    "internalType": "address",
                    "name": "",
                    "type": "address"
                }
            ],
            "stateMutability": "view",
            "type": "function"
        },
        {
            "inputs": [
                {
                    "internalType": "uint256",
                    "name": "",
                    "type": "uint256"
                }
            ],
            "name": "deployedRegistries",
            "outputs": [
                {
                    "internalType": "address",
                    "name": "",
                    "type": "address"
                }
            ],
            "stateMutability": "view",
            "type": "function"
        },
        {
            "inputs": [
                {
                    "internalType": "uint256",
                    "name": "",
                    "type": "uint256"
                }
            ],
            "name": "deployedTimelocks",
            "outputs": [
                {
                    "internalType": "address",
                    "name": "",
                    "type": "address"
                }
            ],
            "stateMutability": "view",
            "type": "function"
        },
        {
            "inputs": [
                {
                    "internalType": "uint256",
                    "name": "",
                    "type": "uint256"
                }
            ],
            "name": "deployedTokens",
            "outputs": [
                {
                    "internalType": "address",
                    "name": "",
                    "type": "address"
                }
            ],
            "stateMutability": "view",
            "type": "function"
        },
        {
            "inputs": [],
            "name": "getNumberOfDAOs",
            "outputs": [
                {
                    "internalType": "uint256",
                    "name": "",
                    "type": "uint256"
                }
            ],
            "stateMutability": "view",
            "type": "function"
        }
    ],
    "bytecode": "0x608060405234801561001057600080fd5b5060405161251f38038061251f83398101604081905261002f9161008d565b600080546001600160a01b039485166001600160a01b0319918216179091556001805493851693821693909317909255600280549190931691161790556100d0565b80516001600160a01b038116811461008857600080fd5b919050565b6000806000606084860312156100a257600080fd5b6100ab84610071565b92506100b960208501610071565b91506100c760408501610071565b90509250925092565b612440806100df6000396000f3fe6080604052600436106100555760003560e01c8063104af3e41461005a57806319e0b288146100975780631ecbdf63146100b75780634cfff150146100d7578063b7ec0122146100ec578063ec81aadb1461010a575b600080fd5b34801561006657600080fd5b5061007a6100753660046107ed565b61012a565b6040516001600160a01b0390911681526020015b60405180910390f35b3480156100a357600080fd5b5061007a6100b23660046107ed565b610154565b3480156100c357600080fd5b5061007a6100d23660046107ed565b610164565b6100ea6100e5366004610a90565b610174565b005b3480156100f857600080fd5b5060035460405190815260200161008e565b34801561011657600080fd5b5061007a6101253660046107ed565b610467565b6006818154811061013a57600080fd5b6000918252602090912001546001600160a01b0316905081565b6003818154811061013a57600080fd5b6005818154811061013a57600080fd5b60a081015151610185906004610bf5565b8160c001515110156101f85760405162461bcd60e51b815260206004820152603260248201527f496e73756666696369656e742073657474696e6773206461746120696e20696e604482015271697469616c416d6f756e747320617272617960701b606482015260840160405180910390fd5b6000805482516020840151606085015160a086015160c0870151604051634adaab4b60e11b81526001600160a01b03909616956395b5569695610245959094909390929091600401610cd8565b6020604051808303816000875af1158015610264573d6000803e3d6000fd5b505050506040513d601f19601f820116820180604052508101906102889190610d3a565b6001546080840151604051638c9513bb60e01b815230600482015260248101919091529192506000916001600160a01b0390911690638c9513bb906044016020604051808303816000875af11580156102e5573d6000803e3d6000fd5b505050506040513d601f19601f820116820180604052508101906103099190610d3a565b600254845160c086015160405163012c36e160e31b81529394506000936001600160a01b0390931692630961b7089261034a92889288929190600401610d5e565b6020604051808303816000875af1158015610369573d6000803e3d6000fd5b505050506040513d601f19601f8201168201806040525081019061038d9190610d3a565b90506000823060405161039f906107e0565b6001600160a01b03928316815291166020820152604001604051809103906000f0801580156103d2573d6000803e3d6000fd5b5090506103ec828585848960e001518a6101000151610477565b816001600160a01b03167f01c5013cf023a364cc49643b8f57347e398d2f0db0968edeb64e7c41bf2dfbde858760a001518860c0015189600001518a602001518b604001518c60800151898e60e001518f61010001516040516104589a99989796959493929190610e01565b60405180910390a25050505050565b6004818154811061013a57600080fd5b6003805460018181019092557fc2575a0e9e593c00f959f8c92f12db2869c3395a3b0502d05e2516446f71f85b0180546001600160a01b03808a166001600160a01b0319928316179092556004805480850182557f8a35acfbc15ff81a39ae7d344fd709f28e8600b4aa8c65c6b64bfe7fe36bd19b0180548a85169084168117909155600580548087019091557f036b6384b5eca791c62761152d0c79bb0604c104a5fb6f4eb0703f3154bb3db00180548a86169085161790556006805495860181556000527ff652222313e28459528d920b65115c16c04f3efc82aaedc97be59f3f377c0d3f909401805493881693909216929092179055604051633825b60160e11b815263704b6c029161059e918891016001600160a01b0391909116815260200190565b600060405180830381600087803b1580156105b857600080fd5b505af11580156105cc573d6000803e3d6000fd5b505050506000849050806001600160a01b0316632f2ff15d826001600160a01b0316638f61f4f56040518163ffffffff1660e01b8152600401602060405180830381865afa158015610622573d6000803e3d6000fd5b505050506040513d601f19601f820116820180604052508101906106469190610ec1565b6040516001600160e01b031960e084901b16815260048101919091526001600160a01b038a166024820152604401600060405180830381600087803b15801561068e57600080fd5b505af11580156106a2573d6000803e3d6000fd5b50505050806001600160a01b0316632f2ff15d826001600160a01b03166307bd02656040518163ffffffff1660e01b8152600401602060405180830381865afa1580156106f3573d6000803e3d6000fd5b505050506040513d601f19601f820116820180604052508101906107179190610ec1565b6040516001600160e01b031960e084901b16815260048101919091526001600160a01b038a166024820152604401600060405180830381600087803b15801561075f57600080fd5b505af1158015610773573d6000803e3d6000fd5b505060405163223e3d0960e21b81526001600160a01b03871692506388f8f42491506107a59086908690600401610eda565b600060405180830381600087803b1580156107bf57600080fd5b505af11580156107d3573d6000803e3d6000fd5b5050505050505050505050565b61150280610f0983390190565b6000602082840312156107ff57600080fd5b5035919050565b634e487b7160e01b600052604160045260246000fd5b604051610120810167ffffffffffffffff8111828210171561084057610840610806565b60405290565b604051601f8201601f1916810167ffffffffffffffff8111828210171561086f5761086f610806565b604052919050565b600082601f83011261088857600080fd5b813567ffffffffffffffff8111156108a2576108a2610806565b6108b5601f8201601f1916602001610846565b8181528460208386010111156108ca57600080fd5b816020850160208301376000918101602001919091529392505050565b803560ff811681146108f857600080fd5b919050565b600067ffffffffffffffff82111561091757610917610806565b5060051b60200190565b6001600160a01b038116811461093657600080fd5b50565b600082601f83011261094a57600080fd5b8135602061095f61095a836108fd565b610846565b8083825260208201915060208460051b87010193508684111561098157600080fd5b602086015b848110156109a657803561099981610921565b8352918301918301610986565b509695505050505050565b600082601f8301126109c257600080fd5b813560206109d261095a836108fd565b8083825260208201915060208460051b8701019350868411156109f457600080fd5b602086015b848110156109a657803583529183019183016109f9565b600082601f830112610a2157600080fd5b81356020610a3161095a836108fd565b82815260059290921b84018101918181019086841115610a5057600080fd5b8286015b848110156109a657803567ffffffffffffffff811115610a745760008081fd5b610a828986838b0101610877565b845250918301918301610a54565b600060208284031215610aa257600080fd5b813567ffffffffffffffff80821115610aba57600080fd5b908301906101208286031215610acf57600080fd5b610ad761081c565b823582811115610ae657600080fd5b610af287828601610877565b825250602083013582811115610b0757600080fd5b610b1387828601610877565b602083015250604083013582811115610b2b57600080fd5b610b3787828601610877565b604083015250610b49606084016108e7565b60608201526080830135608082015260a083013582811115610b6a57600080fd5b610b7687828601610939565b60a08301525060c083013582811115610b8e57600080fd5b610b9a878286016109b1565b60c08301525060e083013582811115610bb257600080fd5b610bbe87828601610a10565b60e0830152506101008084013583811115610bd857600080fd5b610be488828701610a10565b918301919091525095945050505050565b80820180821115610c1657634e487b7160e01b600052601160045260246000fd5b92915050565b6000815180845260005b81811015610c4257602081850181015186830182015201610c26565b506000602082860101526020601f19601f83011685010191505092915050565b60008151808452602080850194506020840160005b83811015610c9c5781516001600160a01b031687529582019590820190600101610c77565b509495945050505050565b60008151808452602080850194506020840160005b83811015610c9c57815187529582019590820190600101610cbc565b60a081526000610ceb60a0830188610c1c565b8281036020840152610cfd8188610c1c565b905060ff861660408401528281036060840152610d1a8186610c62565b90508281036080840152610d2e8185610ca7565b98975050505050505050565b600060208284031215610d4c57600080fd5b8151610d5781610921565b9392505050565b6001600160a01b03858116825284166020820152608060408201819052600090610d8a90830185610c1c565b8281036060840152610d9c8185610ca7565b979650505050505050565b60008282518085526020808601955060208260051b8401016020860160005b84811015610df457601f19868403018952610de2838351610c1c565b98840198925090830190600101610dc6565b5090979650505050505050565b6001600160a01b038b8116825261014060208301819052600091610e278483018e610c62565b91508382036040850152610e3b828d610ca7565b91508382036060850152610e4f828c610c1c565b91508382036080850152610e63828b610c1c565b915083820360a0850152610e77828a610c1c565b91508760c085015280871660e085015250828103610100840152610e9b8186610da7565b9050828103610120840152610eb08185610da7565b9d9c50505050505050505050505050565b600060208284031215610ed357600080fd5b5051919050565b604081526000610eed6040830185610da7565b8281036020840152610eff8185610da7565b9594505050505056fe608060405234801561001057600080fd5b506040516200150238038062001502833981016040819052610031916100dd565b60016000556001600160a01b0382166100905760405162461bcd60e51b815260206004820152601c60248201527f4f776e657220616464726573732063616e6e6f74206265207a65726f00000000604482015260640160405180910390fd5b600380546001600160a01b039384166001600160a01b03199182161790915560048054929093169116179055610110565b80516001600160a01b03811681146100d857600080fd5b919050565b600080604083850312156100f057600080fd5b6100f9836100c1565b9150610107602084016100c1565b90509250929050565b6113e280620001206000396000f3fe6080604052600436106100a05760003560e01c806388f8f4241161006457806388f8f424146101ae5780638da5cb5b146101ce578063981f5499146102065780639db5dbe414610228578063ac210cc714610248578063bc87eed31461026857600080fd5b8063150b7a02146100e15780631aca63761461011f5780632559ddf5146101415780632e9c247b146101615780637b1a49091461018e57600080fd5b366100dc5760405134815233907f4103257eaac983ca79a70d28f90dfc4fa16b619bb0c17ee7cab0d4034c2796249060200160405180910390a2005b600080fd5b3480156100ed57600080fd5b506101016100fc366004610ce7565b61027d565b6040516001600160e01b031990911681526020015b60405180910390f35b34801561012b57600080fd5b5061013f61013a366004610d86565b6102de565b005b34801561014d57600080fd5b5061013f61015c366004610e7e565b610420565b34801561016d57600080fd5b5061018161017c366004610ee2565b610568565b6040516101169190610f6f565b34801561019a57600080fd5b5061013f6101a9366004610f89565b610618565b3480156101ba57600080fd5b5061013f6101c9366004611054565b610766565b3480156101da57600080fd5b506003546101ee906001600160a01b031681565b6040516001600160a01b039091168152602001610116565b34801561021257600080fd5b5061021b6108c8565b60405161011691906110ae565b34801561023457600080fd5b5061013f610243366004610d86565b610a1a565b34801561025457600080fd5b506004546101ee906001600160a01b031681565b34801561027457600080fd5b5061021b610b55565b6000336001600160a01b0316856001600160a01b03167fa7623ac946123c8343a3277b72c66662dab5c4784cebe18bb73311b3d41882a7866040516102c491815260200190565b60405180910390a350630a85bd0160e11b95945050505050565b6003546001600160a01b031633146103115760405162461bcd60e51b815260040161030890611112565b60405180910390fd5b61031a83610c2e565b6103665760405162461bcd60e51b815260206004820152601b60248201527f546f6b656e206973206e6f7420612076616c69642045524337323100000000006044820152606401610308565b604051632142170760e11b81523060048201526001600160a01b038381166024830152604482018390528416906342842e0e90606401600060405180830381600087803b1580156103b657600080fd5b505af11580156103ca573d6000803e3d6000fd5b50505050816001600160a01b0316836001600160a01b03167fc461d0f02e326879d642fc0b955c081fd7827836382a43e99fe5df550589b0118360405161041391815260200190565b60405180910390a3505050565b6003546001600160a01b031633148061044357506004546001600160a01b031633145b61048f5760405162461bcd60e51b815260206004820152601e60248201527f4f6e6c79207468652044414f2063616e206564697420726567697374727900006044820152606401610308565b60018260405161049f9190611149565b908152602001604051809103902080546104b890611165565b90506000036104ff57600280546001810182556000919091527f405787fa12a823e0f2b7631cc41b3ba8828b3321ca811111fa75cd3aa3bb5ace016104fd83826111e9565b505b806001836040516105109190611149565b9081526020016040518091039020908161052a91906111e9565b507f7b86c5d3c943fd36e157d1f4f62c14255da7cef7e527b7066f90325657091a0c828260405161055c9291906112a9565b60405180910390a15050565b606060018260405161057a9190611149565b9081526020016040518091039020805461059390611165565b80601f01602080910402602001604051908101604052809291908181526020018280546105bf90611165565b801561060c5780601f106105e15761010080835404028352916020019161060c565b820191906000526020600020905b8154815290600101906020018083116105ef57829003601f168201915b50505050509050919050565b6003546001600160a01b031633146106425760405162461bcd60e51b815260040161030890611112565b61064a610ca5565b804710156106915760405162461bcd60e51b8152602060048201526014602482015273496e73756666696369656e742062616c616e636560601b6044820152606401610308565b60405147906001600160a01b0384169083156108fc029084906000818181858888f193505050501580156106c9573d6000803e3d6000fd5b506106d482826112d7565b47146107145760405162461bcd60e51b815260206004820152600f60248201526e151c985b9cd9995c8819985a5b1959608a1b6044820152606401610308565b826001600160a01b03167fba7bb5aa419c34d8776b86cc0e9d41e72d74a893a511f361a11af6c05e920c3d8360405161074f91815260200190565b60405180910390a2506107626001600055565b5050565b6003546001600160a01b031633148061078957506004546001600160a01b031633145b6107d55760405162461bcd60e51b815260206004820152601e60248201527f4f6e6c79207468652044414f2063616e206564697420726567697374727900006044820152606401610308565b60005b82518110156108c35760008382815181106107f5576107f56112fe565b602002602001015190506000838381518110610813576108136112fe565b6020026020010151905060018260405161082d9190611149565b9081526020016040518091039020805461084690611165565b905060000361088d57600280546001810182556000919091527f405787fa12a823e0f2b7631cc41b3ba8828b3321ca811111fa75cd3aa3bb5ace0161088b83826111e9565b505b8060018360405161089e9190611149565b908152602001604051809103902090816108b891906111e9565b5050506001016107d8565b505050565b60025460609060009067ffffffffffffffff8111156108e9576108e9610dc7565b60405190808252806020026020018201604052801561091c57816020015b60608152602001906001900390816109075790505b50905060005b600254811015610a1457600160028281548110610941576109416112fe565b906000526020600020016040516109589190611314565b9081526020016040518091039020805461097190611165565b80601f016020809104026020016040519081016040528092919081815260200182805461099d90611165565b80156109ea5780601f106109bf576101008083540402835291602001916109ea565b820191906000526020600020905b8154815290600101906020018083116109cd57829003601f168201915b5050505050828281518110610a0157610a016112fe565b6020908102919091010152600101610922565b50919050565b6003546001600160a01b03163314610a445760405162461bcd60e51b815260040161030890611112565b60405163a9059cbb60e01b81526001600160a01b038381166004830152602482018390526000919085169063a9059cbb906044016020604051808303816000875af1158015610a97573d6000803e3d6000fd5b505050506040513d601f19601f82011682018060405250810190610abb919061138a565b905080610b025760405162461bcd60e51b8152602060048201526015602482015274115490cc8c081d1c985b9cd9995c8819985a5b1959605a1b6044820152606401610308565b826001600160a01b0316846001600160a01b03167f3ed03153e9c248019b0420ed4652ed13c51da0ec7ecc09eb2d3b70f2064be64b84604051610b4791815260200190565b60405180910390a350505050565b60606002805480602002602001604051908101604052809291908181526020016000905b82821015610c25578382906000526020600020018054610b9890611165565b80601f0160208091040260200160405190810160405280929190818152602001828054610bc490611165565b8015610c115780601f10610be657610100808354040283529160200191610c11565b820191906000526020600020905b815481529060010190602001808311610bf457829003601f168201915b505050505081526020019060010190610b79565b50505050905090565b604051632142170760e11b815230600482018190526024820152600060448201819052906001600160a01b038316906342842e0e90606401600060405180830381600087803b158015610c8057600080fd5b505af1925050508015610c91575060015b610c9d57506000919050565b506001919050565b600260005403610cc857604051633ee5aeb560e01b815260040160405180910390fd5b6002600055565b6001600160a01b0381168114610ce457600080fd5b50565b600080600080600060808688031215610cff57600080fd5b8535610d0a81610ccf565b94506020860135610d1a81610ccf565b935060408601359250606086013567ffffffffffffffff80821115610d3e57600080fd5b818801915088601f830112610d5257600080fd5b813581811115610d6157600080fd5b896020828501011115610d7357600080fd5b9699959850939650602001949392505050565b600080600060608486031215610d9b57600080fd5b8335610da681610ccf565b92506020840135610db681610ccf565b929592945050506040919091013590565b634e487b7160e01b600052604160045260246000fd5b604051601f8201601f1916810167ffffffffffffffff81118282101715610e0657610e06610dc7565b604052919050565b600082601f830112610e1f57600080fd5b813567ffffffffffffffff811115610e3957610e39610dc7565b610e4c601f8201601f1916602001610ddd565b818152846020838601011115610e6157600080fd5b816020850160208301376000918101602001919091529392505050565b60008060408385031215610e9157600080fd5b823567ffffffffffffffff80821115610ea957600080fd5b610eb586838701610e0e565b93506020850135915080821115610ecb57600080fd5b50610ed885828601610e0e565b9150509250929050565b600060208284031215610ef457600080fd5b813567ffffffffffffffff811115610f0b57600080fd5b610f1784828501610e0e565b949350505050565b60005b83811015610f3a578181015183820152602001610f22565b50506000910152565b60008151808452610f5b816020860160208601610f1f565b601f01601f19169290920160200192915050565b602081526000610f826020830184610f43565b9392505050565b60008060408385031215610f9c57600080fd5b8235610fa781610ccf565b946020939093013593505050565b600082601f830112610fc657600080fd5b8135602067ffffffffffffffff80831115610fe357610fe3610dc7565b8260051b610ff2838201610ddd565b938452858101830193838101908886111561100c57600080fd5b84880192505b858310156110485782358481111561102a5760008081fd5b6110388a87838c0101610e0e565b8352509184019190840190611012565b98975050505050505050565b6000806040838503121561106757600080fd5b823567ffffffffffffffff8082111561107f57600080fd5b61108b86838701610fb5565b935060208501359150808211156110a157600080fd5b50610ed885828601610fb5565b600060208083016020845280855180835260408601915060408160051b87010192506020870160005b8281101561110557603f198886030184526110f3858351610f43565b945092850192908501906001016110d7565b5092979650505050505050565b6020808252601f908201527f4f6e6c79207468652044414f2063616e206d616b65207472616e736665727300604082015260600190565b6000825161115b818460208701610f1f565b9190910192915050565b600181811c9082168061117957607f821691505b602082108103610a1457634e487b7160e01b600052602260045260246000fd5b601f8211156108c3576000816000526020600020601f850160051c810160208610156111c25750805b601f850160051c820191505b818110156111e1578281556001016111ce565b505050505050565b815167ffffffffffffffff81111561120357611203610dc7565b611217816112118454611165565b84611199565b602080601f83116001811461124c57600084156112345750858301515b600019600386901b1c1916600185901b1785556111e1565b600085815260208120601f198616915b8281101561127b5788860151825594840194600190910190840161125c565b50858210156112995787850151600019600388901b60f8161c191681555b5050505050600190811b01905550565b6040815260006112bc6040830185610f43565b82810360208401526112ce8185610f43565b95945050505050565b818103818111156112f857634e487b7160e01b600052601160045260246000fd5b92915050565b634e487b7160e01b600052603260045260246000fd5b600080835461132281611165565b6001828116801561133a576001811461134f5761137e565b60ff198416875282151583028701945061137e565b8760005260208060002060005b858110156113755781548a82015290840190820161135c565b50505082870194505b50929695505050505050565b60006020828403121561139c57600080fd5b81518015158114610f8257600080fdfea2646970667358221220837b3ce23c3d441ddd2b50cc690305c50de34a5cbdb8f62ead0bb9423aeb64f664736f6c63430008180033a2646970667358221220289e93b874e060ab7744631a500caf935dcb9eb1222154b3cd8b4b5b0c8714d464736f6c63430008180033",
    "linkReferences": {},
    "deployedLinkReferences": {}
}