{
  "_format": "hh-sol-artifact-1",
  "contractName": "StandardFactoryTransferable",
  "sourceName": "contracts/factories/StandardFactoryTransferable.sol",
  "abi": [
    {
      "inputs": [
        {
          "internalType": "address",
          "name": "_infrastructureFactory",
          "type": "address"
        },
        {
          "internalType": "address",
          "name": "_daoFactory",
          "type": "address"
        },
        {
          "internalType": "address",
          "name": "_repTokenFactory",
          "type": "address"
        }
      ],
      "stateMutability": "nonpayable",
      "type": "constructor"
    },
    {
      "anonymous": false,
      "inputs": [
        {
          "indexed": true,
          "internalType": "address",
          "name": "dao",
          "type": "address"
        },
        {
          "indexed": false,
          "internalType": "address",
          "name": "token",
          "type": "address"
        },
        {
          "indexed": false,
          "internalType": "address[]",
          "name": "initialMembers",
          "type": "address[]"
        },
        {
          "indexed": false,
          "internalType": "uint256[]",
          "name": "initialAmounts",
          "type": "uint256[]"
        },
        {
          "indexed": false,
          "internalType": "string",
          "name": "name",
          "type": "string"
        },
        {
          "indexed": false,
          "internalType": "string",
          "name": "symbol",
          "type": "string"
        },
        {
          "indexed": false,
          "internalType": "string",
          "name": "description",
          "type": "string"
        },
        {
          "indexed": false,
          "internalType": "uint256",
          "name": "executionDelay",
          "type": "uint256"
        },
        {
          "indexed": false,
          "internalType": "address",
          "name": "registry",
          "type": "address"
        },
        {
          "indexed": false,
          "internalType": "string[]",
          "name": "keys",
          "type": "string[]"
        },
        {
          "indexed": false,
          "internalType": "string[]",
          "name": "values",
          "type": "string[]"
        }
      ],
      "name": "NewDaoCreated",
      "type": "event"
    },
    {
      "inputs": [],
      "name": "daoFactory",
      "outputs": [
        {
          "internalType": "contract DAOFactory",
          "name": "",
          "type": "address"
        }
      ],
      "stateMutability": "view",
      "type": "function"
    },
    {
      "inputs": [
        {
          "components": [
            {
              "internalType": "string",
              "name": "name",
              "type": "string"
            },
            {
              "internalType": "string",
              "name": "symbol",
              "type": "string"
            },
            {
              "internalType": "string",
              "name": "description",
              "type": "string"
            },
            {
              "internalType": "uint8",
              "name": "decimals",
              "type": "uint8"
            },
            {
              "internalType": "uint256",
              "name": "executionDelay",
              "type": "uint256"
            },
            {
              "internalType": "address[]",
              "name": "initialMembers",
              "type": "address[]"
            },
            {
              "internalType": "uint256[]",
              "name": "initialAmounts",
              "type": "uint256[]"
            },
            {
              "internalType": "string[]",
              "name": "keys",
              "type": "string[]"
            },
            {
              "internalType": "string[]",
              "name": "values",
              "type": "string[]"
            }
          ],
          "internalType": "struct StandardFactoryTransferable.DaoParams",
          "name": "params",
          "type": "tuple"
        }
      ],
      "name": "deployDAOwithToken",
      "outputs": [],
      "stateMutability": "payable",
      "type": "function"
    },
    {
      "inputs": [
        {
          "internalType": "string",
          "name": "name",
          "type": "string"
        },
        {
          "internalType": "string",
          "name": "symbol",
          "type": "string"
        },
        {
          "internalType": "string",
          "name": "description",
          "type": "string"
        },
        {
          "internalType": "uint8",
          "name": "decimals",
          "type": "uint8"
        },
        {
          "internalType": "uint256",
          "name": "executionDelay",
          "type": "uint256"
        },
        {
          "internalType": "address[]",
          "name": "initialMembers",
          "type": "address[]"
        },
        {
          "internalType": "uint256[]",
          "name": "initialAmounts",
          "type": "uint256[]"
        },
        {
          "internalType": "string[]",
          "name": "keys",
          "type": "string[]"
        },
        {
          "internalType": "string[]",
          "name": "values",
          "type": "string[]"
        }
      ],
      "name": "deployDAOwithToken",
      "outputs": [],
      "stateMutability": "payable",
      "type": "function"
    },
    {
      "inputs": [
        {
          "internalType": "uint256",
          "name": "",
          "type": "uint256"
        }
      ],
      "name": "deployedDAOs",
      "outputs": [
        {
          "internalType": "address",
          "name": "",
          "type": "address"
        }
      ],
      "stateMutability": "view",
      "type": "function"
    },
    {
      "inputs": [
        {
          "internalType": "uint256",
          "name": "",
          "type": "uint256"
        }
      ],
      "name": "deployedRegistries",
      "outputs": [
        {
          "internalType": "address",
          "name": "",
          "type": "address"
        }
      ],
      "stateMutability": "view",
      "type": "function"
    },
    {
      "inputs": [
        {
          "internalType": "uint256",
          "name": "",
          "type": "uint256"
        }
      ],
      "name": "deployedTimelocks",
      "outputs": [
        {
          "internalType": "address",
          "name": "",
          "type": "address"
        }
      ],
      "stateMutability": "view",
      "type": "function"
    },
    {
      "inputs": [
        {
          "internalType": "uint256",
          "name": "",
          "type": "uint256"
        }
      ],
      "name": "deployedTokens",
      "outputs": [
        {
          "internalType": "address",
          "name": "",
          "type": "address"
        }
      ],
      "stateMutability": "view",
      "type": "function"
    },
    {
      "inputs": [],
      "name": "getNumberOfDAOs",
      "outputs": [
        {
          "internalType": "uint256",
          "name": "",
          "type": "uint256"
        }
      ],
      "stateMutability": "view",
      "type": "function"
    },
    {
      "inputs": [],
      "name": "infrastructureFactory",
      "outputs": [
        {
          "internalType": "contract InfrastructureFactory",
          "name": "",
          "type": "address"
        }
      ],
      "stateMutability": "view",
      "type": "function"
    },
    {
      "inputs": [],
      "name": "repTokenFactory",
      "outputs": [
        {
          "internalType": "contract RepTokenFactory",
          "name": "",
          "type": "address"
        }
      ],
      "stateMutability": "view",
      "type": "function"
    }
  ],
  "bytecode": "0x60e0346100b757601f6115b738819003918201601f19168301916001600160401b038311848410176100bb578084926060946040528339810103126100b757610047816100cf565b906100606040610059602084016100cf565b92016100cf565b6001600160a01b0392831660805290821660a0521660c0526040516114d390816100e482396080518181816104710152610a1c015260a05181818161042d0152610c17015260c0518181816101180152610b2d0152f35b5f80fd5b634e487b7160e01b5f52604160045260245ffd5b51906001600160a01b03821682036100b75756fe60806040526004361015610011575f80fd5b5f3560e01c8063104af3e41461056557806319e0b288146105045780631ecbdf63146104a05780632b8ef6d61461045c57806348f7f2a3146104185780634cfff150146102a3578063b7ec012214610287578063c68ad99514610147578063dbfe45ea146101035763ec81aadb14610087575f80fd5b346100ff5760203660031901126100ff576004356001548110156100ff576001548110156100eb5760015f527fb10e2d527612073b26eecdfd717e6a320cf44b4afac2b0732d9fcbe2b7fa0cf601546040516001600160a01b039091168152602090f35b634e487b7160e01b5f52603260045260245ffd5b5f80fd5b346100ff575f3660031901126100ff576040517f00000000000000000000000000000000000000000000000000000000000000006001600160a01b03168152602090f35b6101203660031901126100ff576004356001600160401b0381116100ff5761017390369060040161062f565b6024356001600160401b0381116100ff5761019290369060040161062f565b906044356001600160401b0381116100ff576101b290369060040161062f565b9160643560ff81168091036100ff5760a4356001600160401b0381116100ff576101e090369060040161069b565b60c4356001600160401b0381116100ff576101ff903690600401610709565b9060e4356001600160401b0381116100ff5761021f903690600401610766565b9261010435966001600160401b0388116100ff57610244610285983690600401610766565b9560405197610252896105de565b8852602088015260408701526060860152608435608086015260a085015260c084015260e0830152610100820152610902565b005b346100ff575f3660031901126100ff5760205f54604051908152f35b60203660031901126100ff576004356001600160401b0381116100ff5761012060031982360301126100ff576040516102db816105de565b81600401356001600160401b0381116100ff576102fe906004369185010161062f565b815260248201356001600160401b0381116100ff57610323906004369185010161062f565b602082015260448201356001600160401b0381116100ff5761034b906004369185010161062f565b6040820152606482013560ff811681036100ff5760608201526084820135608082015260a48201356001600160401b0381116100ff57610391906004369185010161069b565b60a082015260c48201356001600160401b0381116100ff576103b99060043691850101610709565b60c082015260e48201356001600160401b0381116100ff576103e19060043691850101610766565b60e08201526101048201356001600160401b0381116100ff5761028592600461040d9236920101610766565b610100820152610902565b346100ff575f3660031901126100ff576040517f00000000000000000000000000000000000000000000000000000000000000006001600160a01b03168152602090f35b346100ff575f3660031901126100ff576040517f00000000000000000000000000000000000000000000000000000000000000006001600160a01b03168152602090f35b346100ff5760203660031901126100ff576004356002548110156100ff576002548110156100eb5760025f527f405787fa12a823e0f2b7631cc41b3ba8828b3321ca811111fa75cd3aa3bb5ace01546040516001600160a01b039091168152602090f35b346100ff5760203660031901126100ff576004355f548110156100ff575f548110156100eb575f80527f290decd9548b62a8d60345a988386fc84ba6bc95484008f6362f93160ef3e56301546040516001600160a01b039091168152602090f35b346100ff5760203660031901126100ff576004356003548110156100ff576003548110156100eb5760035f527fc2575a0e9e593c00f959f8c92f12db2869c3395a3b0502d05e2516446f71f85b01546040516001600160a01b039091168152602090f35b80548210156100eb575f5260205f2001905f90565b61012081019081106001600160401b038211176105fa57604052565b634e487b7160e01b5f52604160045260245ffd5b90601f801991011681019081106001600160401b038211176105fa57604052565b81601f820112156100ff578035906001600160401b0382116105fa5760405192610663601f8401601f19166020018561060e565b828452602083830101116100ff57815f926020809301838601378301015290565b6001600160401b0381116105fa5760051b60200190565b9080601f830112156100ff578135906106b382610684565b926106c1604051948561060e565b82845260208085019360051b8201019182116100ff57602001915b8183106106e95750505090565b82356001600160a01b03811681036100ff578152602092830192016106dc565b9080601f830112156100ff57813561072081610684565b9261072e604051948561060e565b81845260208085019260051b8201019283116100ff57602001905b8282106107565750505090565b8135815260209182019101610749565b9080601f830112156100ff57813561077d81610684565b9261078b604051948561060e565b81845260208085019260051b820101918383116100ff5760208201905b8382106107b757505050505090565b81356001600160401b0381116100ff576020916107d98784809488010161062f565b8152019101906107a8565b80518210156100eb5760209160051b010190565b908160209103126100ff57516001600160a01b03811681036100ff5790565b805180835260209291819084018484015e5f828201840152601f01601f1916010190565b90602080835192838152019201905f5b8181106108585750505090565b82516001600160a01b031684526020938401939092019160010161084b565b90602080835192838152019201905f5b8181106108945750505090565b8251845260209384019390920191600101610887565b9080602083519182815201916020808360051b8301019401925f915b8383106108d557505050505090565b90919293946020806108f3600193601f198682030187528951610817565b970193019301919392906108c6565b60c0810151905f915160a08201515190600482018092116113bb57106114325760a081015151156113cf5760c081015180516003198101919082116113bb5765ffffffffffff91610952916107e4565b51169160c082015180519060021982019182116113bb5763ffffffff91610978916107e4565b511660c0830151805160011981019081116113bb57610996916107e4565b519160c08401518051905f1982019182116113bb5760ff916109b7916107e4565b51169260a085015151936109ca85610684565b946109d8604051968761060e565b808652601f196109e782610684565b013660208801375f5b8181106113985750506080860151604051638c9513bb60e01b81523060048201526024810191909152937f00000000000000000000000000000000000000000000000000000000000000006001600160a01b031692906020866044815f885af19384156112ed575f968795611376575b50602090604460405180998193637ac9a97960e01b83523060048401523060248401525af19586156112ed57889788915f9861134a575b5081610b21610ad692610b0f60a060208097519501519d0151610ae86040519e8f978897637700e3a160e01b895260e060048a015260e4890190610817565b87810360031901602489015290610817565b6001600160a01b038e1660448701523060648701528581036003190160848701529061083b565b8381036003190160a485015290610877565b600160c483015203815f7f00000000000000000000000000000000000000000000000000000000000000006001600160a01b03165af19687156112ed575f97611329575b5060405198610b7560a08b61060e565b60048a5260208a0160803682378a51156100eb57528851600110156100eb5760408901528751600210156100eb5760608801528651600310156100eb5760808701526020610c008651610c12604051998a93849363012c36e160e31b855260018060a01b038b16600486015260018060a01b0388166024860152608060448601526084850190610817565b83810360031901606485015290610877565b03815f7f00000000000000000000000000000000000000000000000000000000000000006001600160a01b03165af19586156112ed575f966112f8575b5060e0850151610100860151915f54600160401b8110156105fa57806001610c7a92015f555f6105c9565b81546001600160a01b038b811660039390931b92831b921b1916179055600154600160401b8110156105fa57806001610cb8920160015560016105c9565b81546001600160a01b0389811660039390931b92831b921b1916179055600254600160401b8110156105fa57806001610cf6920160025560026105c9565b81546001600160a01b03600392831b81811b1990921690851690911b1790915554600160401b8110156105fa57806001610d35920160035560036105c9565b81546001600160a01b0388811660039390931b83811b91901b19909116179091553b156100ff5760405163d30843e960e01b81526001600160a01b0387811660048301525f908290602490829084908b165af180156112ed576112d8575b506001600160a01b0386163b1561123157604051633825b60160e11b81526001600160a01b03828116600483015285908290602490829084908c165af18015611211579085916112c3575b50506001600160a01b0385163b156112315760405163f2fde38b60e01b81526001600160a01b03828116600483015285908290602490829084908b165af18015611211579085916112ae575b5050604051638f61f4f560e01b81526020816004816001600160a01b0386165afa90811561121157859161127c575b506001600160a01b0382163b156111db57604051632f2ff15d60e01b815260048101919091526001600160a01b0389166024820152848180604481010381836001600160a01b0387165af1801561121157908591611267575b50506040516307bd026560e01b81526020816004816001600160a01b0386165afa908115611211578591611235575b506001600160a01b0382163b156111db57604051632f2ff15d60e01b81526004810191909152602481018590528481604481836001600160a01b0387165af180156112115790859161121c575b505060405163a217fddf60e01b81526020816004816001600160a01b0386165afa9081156112115785916111df575b506001600160a01b0382163b156111db5760405163d547741f60e01b815260048101919091523060248201529084908290604490829084906001600160a01b03165af180156111d0579084916111bb575b50508051806110c1575b5050505060a08301519260c081015191815190602083015160408401519060808501519360e086015195610100015196604051998a99600160a01b60019003168a5260208a0161014090526101408a016110119161083b565b89810360408b015261102291610877565b88810360608a015261103391610817565b878103608089015261104491610817565b86810360a088015261105591610817565b60c08601929092526001600160a01b031660e085015283810361010085015261107d916108aa565b8281036101208401526001600160a01b039094169361109b916108aa565b037f01c5013cf023a364cc49643b8f57347e398d2f0db0968edeb64e7c41bf2dfbde91a2565b82510361115d576001600160a01b0384163b15611159576111038391611115604051948593849363223e3d0960e21b85526040600486015260448501906108aa565b838103600319016024850152906108aa565b0381836001600160a01b0388165af1801561114e57611136575b8080610fb8565b61114182809261060e565b61114b578061112f565b80fd5b6040513d84823e3d90fd5b8280fd5b60405162461bcd60e51b815260206004820152603060248201527f5374616e64617264466163746f72793a204b65797320616e642076616c75657360448201526f040d8cadccee8d040dad2e6dac2e8c6d60831b6064820152608490fd5b816111c59161060e565b61115957825f610fae565b6040513d86823e3d90fd5b8480fd5b90506020813d602011611209575b816111fa6020938361060e565b810103126100ff57515f610f5d565b3d91506111ed565b6040513d87823e3d90fd5b816112269161060e565b61123157835f610f2e565b8380fd5b90506020813d60201161125f575b816112506020938361060e565b810103126100ff57515f610ee1565b3d9150611243565b816112719161060e565b61123157835f610eb2565b90506020813d6020116112a6575b816112976020938361060e565b810103126100ff57515f610e59565b3d915061128a565b816112b89161060e565b61123157835f610e2a565b816112cd9161060e565b61123157835f610dde565b6112e59194505f9061060e565b5f925f610d93565b6040513d5f823e3d90fd5b61131b91965060203d602011611322575b611313818361060e565b8101906107f8565b945f610c4f565b503d611309565b61134391975060203d60201161132257611313818361060e565b955f610b65565b610ad691985091610b2161136c602094853d871161132257611313818361060e565b9992505091610a97565b602091955061139190823d841161132257611313818361060e565b9490610a60565b806113a960019260c08b01516107e4565b516113b4828a6107e4565b52016109f0565b634e487b7160e01b5f52601160045260245ffd5b60405162461bcd60e51b815260206004820152603560248201527f5374616e64617264466163746f72793a204174206c65617374206f6e6520696e6044820152741a5d1a585b081b595b58995c881c995c5d5a5c9959605a1b6064820152608490fd5b60405162461bcd60e51b815260206004820152603860248201527f5374616e64617264466163746f72793a20496e73756666696369656e7420736560448201527f7474696e677320696e20696e697469616c416d6f756e747300000000000000006064820152608490fdfea26469706673582212203b90239651092af33a761eaf6b3d7acb37390302b40b11ae54671ca0690706f064736f6c634300081a0033",
  "linkReferences": {},
  "deployedLinkReferences": {}
}