{
  "_format": "hh-sol-artifact-1",
  "contractName": "StandardFactoryWrapped",
  "sourceName": "contracts/factories/StandardFactoryWrapped.sol",
  "abi": [
    {
      "inputs": [
        {
          "internalType": "address",
          "name": "_infrastructureFactory",
          "type": "address"
        },
        {
          "internalType": "address",
          "name": "_daoFactory",
          "type": "address"
        },
        {
          "internalType": "address",
          "name": "_wrappedRepTokenFactory",
          "type": "address"
        }
      ],
      "stateMutability": "nonpayable",
      "type": "constructor"
    },
    {
      "anonymous": false,
      "inputs": [
        {
          "indexed": true,
          "internalType": "address",
          "name": "daoAddress",
          "type": "address"
        },
        {
          "indexed": true,
          "internalType": "address",
          "name": "wrappedTokenAddress",
          "type": "address"
        },
        {
          "indexed": true,
          "internalType": "address",
          "name": "underlyingTokenAddress",
          "type": "address"
        },
        {
          "indexed": false,
          "internalType": "address",
          "name": "registryAddress",
          "type": "address"
        },
        {
          "indexed": false,
          "internalType": "string",
          "name": "daoName",
          "type": "string"
        },
        {
          "indexed": false,
          "internalType": "string",
          "name": "wrappedTokenSymbol",
          "type": "string"
        },
        {
          "indexed": false,
          "internalType": "string",
          "name": "description",
          "type": "string"
        },
        {
          "indexed": false,
          "internalType": "uint8",
          "name": "quorumFraction",
          "type": "uint8"
        },
        {
          "indexed": false,
          "internalType": "uint256",
          "name": "executionDelay",
          "type": "uint256"
        },
        {
          "indexed": false,
          "internalType": "uint48",
          "name": "votingDelay",
          "type": "uint48"
        },
        {
          "indexed": false,
          "internalType": "uint32",
          "name": "votingPeriod",
          "type": "uint32"
        },
        {
          "indexed": false,
          "internalType": "uint256",
          "name": "proposalThreshold",
          "type": "uint256"
        }
      ],
      "name": "DaoWrappedDeploymentInfo",
      "type": "event"
    },
    {
      "inputs": [],
      "name": "daoFactory",
      "outputs": [
        {
          "internalType": "contract DAOFactory",
          "name": "",
          "type": "address"
        }
      ],
      "stateMutability": "view",
      "type": "function"
    },
    {
      "inputs": [
        {
          "components": [
            {
              "internalType": "string",
              "name": "name",
              "type": "string"
            },
            {
              "internalType": "string",
              "name": "symbol",
              "type": "string"
            },
            {
              "internalType": "string",
              "name": "description",
              "type": "string"
            },
            {
              "internalType": "uint256",
              "name": "executionDelay",
              "type": "uint256"
            },
            {
              "internalType": "address",
              "name": "underlyingTokenAddress",
              "type": "address"
            },
            {
              "internalType": "uint256[]",
              "name": "governanceSettings",
              "type": "uint256[]"
            },
            {
              "internalType": "string[]",
              "name": "keys",
              "type": "string[]"
            },
            {
              "internalType": "string[]",
              "name": "values",
              "type": "string[]"
            },
            {
              "internalType": "string",
              "name": "transferrableStr",
              "type": "string"
            }
          ],
          "internalType": "struct StandardFactoryWrapped.DaoParamsWrapped",
          "name": "params",
          "type": "tuple"
        }
      ],
      "name": "deployDAOwithWrappedToken",
      "outputs": [],
      "stateMutability": "payable",
      "type": "function"
    },
    {
      "inputs": [
        {
          "internalType": "uint256",
          "name": "",
          "type": "uint256"
        }
      ],
      "name": "deployedDAOs",
      "outputs": [
        {
          "internalType": "address",
          "name": "",
          "type": "address"
        }
      ],
      "stateMutability": "view",
      "type": "function"
    },
    {
      "inputs": [
        {
          "internalType": "uint256",
          "name": "",
          "type": "uint256"
        }
      ],
      "name": "deployedRegistries",
      "outputs": [
        {
          "internalType": "address",
          "name": "",
          "type": "address"
        }
      ],
      "stateMutability": "view",
      "type": "function"
    },
    {
      "inputs": [
        {
          "internalType": "uint256",
          "name": "",
          "type": "uint256"
        }
      ],
      "name": "deployedTimelocks",
      "outputs": [
        {
          "internalType": "address",
          "name": "",
          "type": "address"
        }
      ],
      "stateMutability": "view",
      "type": "function"
    },
    {
      "inputs": [
        {
          "internalType": "uint256",
          "name": "",
          "type": "uint256"
        }
      ],
      "name": "deployedTokens",
      "outputs": [
        {
          "internalType": "address",
          "name": "",
          "type": "address"
        }
      ],
      "stateMutability": "view",
      "type": "function"
    },
    {
      "inputs": [],
      "name": "getNumberOfDAOs",
      "outputs": [
        {
          "internalType": "uint256",
          "name": "",
          "type": "uint256"
        }
      ],
      "stateMutability": "view",
      "type": "function"
    },
    {
      "inputs": [],
      "name": "infrastructureFactory",
      "outputs": [
        {
          "internalType": "contract InfrastructureFactory",
          "name": "",
          "type": "address"
        }
      ],
      "stateMutability": "view",
      "type": "function"
    },
    {
      "inputs": [],
      "name": "wrappedRepTokenFactory",
      "outputs": [
        {
          "internalType": "contract WrappedRepTokenFactory",
          "name": "",
          "type": "address"
        }
      ],
      "stateMutability": "view",
      "type": "function"
    }
  ],
  "bytecode": "0x60e0346100b757601f61129d38819003918201601f19168301916001600160401b038311848410176100bb578084926060946040528339810103126100b757610047816100cf565b906100606040610059602084016100cf565b92016100cf565b6001600160a01b0392831660805290821660a0521660c0526040516111b990816100e482396080518181816103de0152610e1f015260a0518181816105aa0152610ddb015260c05181818161013301526104bc0152f35b5f80fd5b634e487b7160e01b5f52604160045260245ffd5b51906001600160a01b03821682036100b75756fe60806040526004361015610011575f80fd5b5f803560e01c8063104af3e414610f2757806319e0b28814610ec65780631ecbdf6314610e4e5780632b8ef6d614610e0a57806348f7f2a314610dc65780635c421266146101625780637215a7581461011d578063b7ec0122146101005763ec81aadb1461007d575f80fd5b346100fd5760203660031901126100fd57600435906001548210156100fd576001548210156100e957600181527fb10e2d527612073b26eecdfd717e6a320cf44b4afac2b0732d9fcbe2b7fa0cf69091015460405160039290921b1c6001600160a01b03168152602090f35b634e487b7160e01b81526032600452602490fd5b80fd5b50346100fd57806003193601126100fd5760209054604051908152f35b50346100fd57806003193601126100fd576040517f00000000000000000000000000000000000000000000000000000000000000006001600160a01b03168152602090f35b506020366003190112610b1b576004356001600160401b038111610b1b576101206003198236030112610b1b576040519061012082018281106001600160401b03821117610bfd5760405280600401356001600160401b038111610b1b576101d09060043691840101610fc1565b825260248101356001600160401b038111610b1b576101f59060043691840101610fc1565b602083015260448101356001600160401b038111610b1b5761021d9060043691840101610fc1565b60408301526064810135606083015260848101356001600160a01b0381168103610b1b57608083015260a48101356001600160401b038111610b1b5781019036602383011215610b1b5760048201359161027683611016565b926102846040519485610fa0565b808452602060048186019260051b8401010191368311610b1b57602401905b828210610db65750505060a0830191825260c48101356001600160401b038111610b1b576102d7906004369184010161102d565b60c084015260e48101356001600160401b038111610b1b576102ff906004369184010161102d565b60e0840152610104810135906001600160401b038211610b1b5760046103289236920101610fc1565b6101008301908152600482515103610d4b5760808301516001600160a01b031615610ce05765ffffffffffff61035e83516110ab565b511663ffffffff61036f84516110b8565b511660ff61038861038086516110c8565b5195516110d8565b5116925160208151910120936040946004602087516103a78982610fa0565b828152637472756560e01b91019081522060608801518751638c9513bb60e01b8152306004820152602481019190915296911492907f00000000000000000000000000000000000000000000000000000000000000006001600160a01b03166020886044815f855af1978815610c42575f98610cb6575b509060205f9493926044835180978193637ac9a97960e01b83523060048401523060248401525af1938415610c865789905f95610c90575b5060209061049d959660018060a01b03608083015116906104af8484519401518651998a95869563196c42cb60e21b87526004870152608060248701526084860190611107565b84810360031901604486015290611107565b606483019190915203815f7f00000000000000000000000000000000000000000000000000000000000000006001600160a01b03165af1938415610c86575f94610c65575b5061057897815161050660a082610fa0565b6004815260803660208301378761051c826110ab565b5283610527826110b8565b5284610532826110c8565b528861053d826110d8565b528a51835163012c36e160e31b81526001600160a01b03888116600483015284166024820152608060448201529a8b92916084840190611107565b600319838203016064840152602080835192838152019201905f5b818110610c4c57506020939283900391508290505f7f00000000000000000000000000000000000000000000000000000000000000006001600160a01b03165af1988915610c42575f99610c11575b5060c08a015160e08b0151915f54600160401b811015610bfd5780600161060c92015f555f610f8b565b81546001600160a01b038e811660039390931b92831b921b1916179055600154600160401b811015610bfd5780600161064a92016001556001610f8b565b81546001600160a01b038a811660039390931b92831b921b1916179055600254600160401b811015610bfd5780600161068892016002556002610f8b565b81546001600160a01b03600392831b81811b1990921690851690911b1790915554600160401b811015610bfd578060016106c792016003556003610f8b565b81546001600160a01b0360039290921b82811b199091168b831690911b1790915587163b15610b1b578351633825b60160e11b81526001600160a01b0382811660048301525f908290602490829084908d165af18015610bf357610bde575b508c906001600160a01b0389163b15610b4657845163f2fde38b60e01b81526001600160a01b03828116600483015283908290602490829084908f165af18015610b2757908391610bc9575b50508451638f61f4f560e01b81526020816004816001600160a01b0386165afa908115610b27578391610b94575b506001600160a01b0382163b15610a5b578551632f2ff15d60e01b815260048101919091526001600160a01b038d166024820152828180604481010381836001600160a01b0387165af18015610b2757908391610b7f575b505084516307bd026560e01b81526020816004816001600160a01b0386165afa908115610b27578391610b4a575b506001600160a01b0382163b15610a5b578551632f2ff15d60e01b81526004810191909152602481018390528281604481836001600160a01b0387165af18015610b2757908391610b31575b5050845163a217fddf60e01b8152906020826004816001600160a01b0385165afa918215610b27578392610aec575b506001600160a01b0381163b15610a5b57855163d547741f60e01b8152600481019290925230602483015282908290604490829084906001600160a01b03165af18015610ae257610ac9575b50508051806109b9575b505050907fa12c2643ec07750c5ac2f0ea67ca9719fdacb404868fae91aa3c504c7a8538ca9560209594939261098860018060a01b0360808d0151169b61097a8151938a83015161096d606060408601519501519661012084519e8f9e8f9060018060a01b0316815201526101208d0190611107565b918b8303908c0152611107565b9088820360608a0152611107565b608087019990995260a086015260c085015260e08401526101008301526001600160a01b039081169516930390a480f35b825103610a5f578b91906001600160a01b0388163b15610a5b576109fc8391610a0e8651948593849363223e3d0960e21b8552896004860152604485019061112b565b8381036003190160248501529061112b565b0381836001600160a01b038c165af18015610a5157610a2e575b806108f7565b81610a3e91979695949397610fa0565b610a4d5790919293895f610a28565b8980fd5b83513d84823e3d90fd5b8280fd5b825162461bcd60e51b815260206004820152603760248201527f5374616e64617264466163746f7279577261707065643a204b65797320616e6460448201527f2076616c756573206c656e677468206d69736d617463680000000000000000006064820152608490fd5b81610ad391610fa0565b610ade578b5f6108ed565b8b80fd5b85513d84823e3d90fd5b925090506020823d602011610b1f575b81610b0960209383610fa0565b81010312610b1b578d9151905f6108a1565b5f80fd5b3d9150610afc565b86513d85823e3d90fd5b81610b3b91610fa0565b610b4657815f610872565b5080fd5b9250506020823d602011610b77575b81610b6660209383610fa0565b81010312610b1b578d91515f610826565b3d9150610b59565b81610b8991610fa0565b610b4657815f6107f8565b9250506020823d602011610bc1575b81610bb060209383610fa0565b81010312610b1b578d91515f6107a0565b3d9150610ba3565b81610bd391610fa0565b610b4657815f610772565b610beb919d505f90610fa0565b5f9b5f610726565b85513d5f823e3d90fd5b634e487b7160e01b5f52604160045260245ffd5b610c3491995060203d602011610c3b575b610c2c8183610fa0565b8101906110e8565b975f6105e2565b503d610c22565b82513d5f823e3d90fd5b825184528d945060209384019390920191600101610593565b610c7f91945060203d602011610c3b57610c2c8183610fa0565b925f6104f4565b50513d5f823e3d90fd5b61049d955090610cae602092833d8511610c3b57610c2c8183610fa0565b955090610456565b5f949392919850610cd5602091823d8411610c3b57610c2c8183610fa0565b98919293945061041e565b60405162461bcd60e51b815260206004820152603f60248201527f5374616e64617264466163746f7279577261707065643a20556e6465726c796960448201527f6e6720746f6b656e2063616e6e6f74206265207a65726f2061646472657373006064820152608490fd5b60405162461bcd60e51b815260206004820152603f60248201527f5374616e64617264466163746f7279577261707065643a20676f7665726e616e60448201527f636553657474696e6773206d7573742068617665203420656c656d656e7473006064820152608490fd5b81358152602091820191016102a3565b34610b1b575f366003190112610b1b576040517f00000000000000000000000000000000000000000000000000000000000000006001600160a01b03168152602090f35b34610b1b575f366003190112610b1b576040517f00000000000000000000000000000000000000000000000000000000000000006001600160a01b03168152602090f35b34610b1b576020366003190112610b1b57600435600254811015610b1b57600254811015610eb25760025f527f405787fa12a823e0f2b7631cc41b3ba8828b3321ca811111fa75cd3aa3bb5ace01546040516001600160a01b039091168152602090f35b634e487b7160e01b5f52603260045260245ffd5b34610b1b576020366003190112610b1b576004355f54811015610b1b575f54811015610eb2575f80527f290decd9548b62a8d60345a988386fc84ba6bc95484008f6362f93160ef3e56301546040516001600160a01b039091168152602090f35b34610b1b576020366003190112610b1b57600435600354811015610b1b57600354811015610eb25760035f527fc2575a0e9e593c00f959f8c92f12db2869c3395a3b0502d05e2516446f71f85b01546040516001600160a01b039091168152602090f35b8054821015610eb2575f5260205f2001905f90565b90601f801991011681019081106001600160401b03821117610bfd57604052565b81601f82011215610b1b578035906001600160401b038211610bfd5760405192610ff5601f8401601f191660200185610fa0565b82845260208383010111610b1b57815f926020809301838601378301015290565b6001600160401b038111610bfd5760051b60200190565b9080601f83011215610b1b57813561104481611016565b926110526040519485610fa0565b81845260208085019260051b82010191838311610b1b5760208201905b83821061107e57505050505090565b81356001600160401b038111610b1b576020916110a087848094880101610fc1565b81520191019061106f565b805115610eb25760200190565b805160011015610eb25760400190565b805160021015610eb25760600190565b805160031015610eb25760800190565b90816020910312610b1b57516001600160a01b0381168103610b1b5790565b805180835260209291819084018484015e5f828201840152601f01601f1916010190565b9080602083519182815201916020808360051b8301019401925f915b83831061115657505050505090565b9091929394602080611174600193601f198682030187528951611107565b9701930193019193929061114756fea26469706673582212204bf7ddf42beb8a286243b06346d044977994ec08a7795d2eb7888f9e896cf6a264736f6c634300081a0033",
  "linkReferences": {},
  "deployedLinkReferences": {}
}